:020000040800F2
:1000000000500020BD4A0008394800084548000853
:100010004B480008514800085748000800000000FD
:100020000000000000000000000000005D48000823
:100030006948000800000000754800088148000871
:10004000054B0008054B0008054B0008054B000850
:10005000054B0008054B0008054B0008054B000840
:10006000054B0008054B0008054B0008054B000830
:10007000054B0008054B0008054B0008054B000820
:10008000054B0008054B0008054B0008054B000810
:10009000054B0008054B0008054B0008054B000800
:1000A000054B0008054B0008054B0008054B0008F0
:1000B0008D480008054B0008054B0008054B00085B
:1000C000054B0008054B0008054B0008054B0008D0
:1000D000054B0008054B0008054B0008054B0008C0
:1000E000054B0008054B0008054B00080000000008
:1000F0000000000000000000000000000000000000
:0C01000000000000000000005FF808F1A3
:10010C0000F1340191E838009C46A6464CF8045D99
:10011C0090E8FF0FE54600BD90EC210B704700BF47
:10012C0080EC210B704700BF90EC200B704700BF98
:10013C0080EC200B704700BFD0EC200B704700BF49
:10014C00C0EC200B704700BFF0EC0201F0EC021188
:10015C00F0EC0221F0EC0231F0EC0241F0EC025137
:10016C00F0EC0261F0EC0271F0EC0281F0EC029127
:10017C00F0EC02A1F0EC02B1F0EC02C1F0EC02D117
:10018C00F0EC02E1F0EC02F1704700BFE0EC020190
:10019C00E0EC0211E0EC0221E0EC0231E0EC024177
:1001AC00E0EC0251E0EC0261E0EC0271E0EC028167
:1001BC00E0EC0291E0EC02A1E0EC02B1E0EC02C157
:1001CC00E0EC02D1E0EC02E1E0EC02F1704700BFA0
:1001DC00B0FC0181B0FC0191B0FC01A1B0FC01B1FB
:1001EC00704700BFA0FC0181A0FC0191A0FC01A103
:1001FC00A0FC01B1704700BFEC4600B52DE90050E2
:10020C002DE9FF1F4FF000032DE90C0001A905F0AB
:10021C00D3FDDDF840E012B0704700BFEC4600B5EE
:10022C002DE900502DE9FF1F4FF000032DE90C00C4
:10023C0001A905F0F8FDDDF840E012B0704700BFF1
:10024C00EC4600B52DE900502DE9FF1F4FF00003DF
:10025C002DE90C0001A905F006FEDDF840E012B016
:10026C00704700BFEC4600B52DE900502DE9FF1F8B
:10027C004FF000032DE90C0001AB05F0CAFDDDF8D1
:10028C0040E012B0704700BFEC4600B52DE90050BD
:10029C002DE9FF1F4FF000032DE90C0001AA05F01A
:1002AC002EFEDDF840E012B0704700BF10F8012BB5
:1002BC0011F8013B012A28BF9A42F7D0D01A704797
:1002CC00034613F8012B002AFBD1181A013870478A
:1002DC0010B5054C227832B9044B13B10448AFF376
:1002EC0000800123237010BD780000200000000066
:1002FC005073000808B5034B1BB103490348AFF317
:10030C00008008BD000000007C0000205073000835
:10031C0080B500AF084B1B68074A43F0100313600D
:10032C00032000F041F9002000F008F804F04CFA2A
:10033C000023184680BD00BF0020024080B582B06B
:10034C0000AF7860124B1A68124B1B7819464FF4A9
:10035C007A73B3FBF1F3B2FBF3F3184600F059F9DF
:10036C000346002B01D001230EE07B680F2B0AD82B
:10037C00002279684FF0FF3000F021F9064A7B68C3
:10038C001360002300E0012318460837BD4680BDEA
:10039C0008000020040000200000002080B400AF02
:1003AC00054B1B781A46054B1B681344034A136014
:1003BC0000BFBD4680BC70470400002094000020A4
:1003CC0080B400AF024B1B681846BD4680BC70471A
:1003DC009400002080B584B000AF7860FFF7F0FF88
:1003EC00B8607B68FB60FB68B3F1FF3F05D0094B3D
:1003FC001B781A46FB681344FB6000BFFFF7E0FF55
:10040C000246BB68D31AFA689A42F7D800BF103775
:10041C00BD4680BD0400002080B485B000AF78607C
:10042C007B6803F00703FB600C4BDB68BB60BA68AE
:10043C004FF6FF031340BB60FB681A02BB68134303
:10044C0043F0BF6343F40033BB60044ABB68D36022
:10045C0000BF1437BD4680BC704700BF00ED00E004
:10046C0080B400AF044BDB681B0A03F0070318468B
:10047C00BD4680BC704700BF00ED00E080B483B087
:10048C0000AF0346FB71FB7903F01F02064997F995
:10049C0007305B09012000FA02F241F8232000BF6B
:1004AC000C37BD4680BC704700E100E080B483B0DF
:1004BC0000AF03463960FB7197F90730002B0BDA5C
:1004CC003B68DAB20C49FB7903F00F03043B1201D1
:1004DC00D2B20B441A7609E03B68DAB2074997F9B5
:1004EC0007301201D2B20B4483F8002300BF0C3743
:1004FC00BD4680BC704700BF00ED00E000E100E0AD
:10050C0080B489B000AFF860B9607A60FB6803F022
:10051C000703FB61FB69C3F10703042B28BF04230A
:10052C00BB61FB690433062B02D9FB69033B00E07A
:10053C0000237B614FF0FF32BB6902FA03F3DA430D
:10054C00BB681A407B699A404FF0FF317B6901FA16
:10055C0003F3D9437B680B40134318462437BD463D
:10056C0080BC704780B582B000AF78607B68013B7F
:10057C00B3F1807F01D301230FE00A4A7B68013B72
:10058C0053600F214FF0FF30FFF790FF054B002217
:10059C009A60044B07221A60002318460837BD46A0
:1005AC0080BD00BF10E000E080B582B000AF786085
:1005BC007868FFF731FF00BF0837BD4680BD80B5B6
:1005CC0086B000AF0346B9607A60FB7300237B6191
:1005DC00FFF746FF78617A68B9687869FFF790FF92
:1005EC00024697F90F3011461846FFF75FFF00BF20
:1005FC001837BD4680BD80B582B000AF0346FB7195
:10060C0097F907301846FFF739FF00BF0837BD468A
:10061C0080BD80B582B000AF78607868FFF7A2FF2C
:10062C00034618460837BD4680BD000080B48BB029
:10063C0000AF786039600023FB610023BB610023AD
:10064C007B6100233B6200233B6100237B6227E13B
:10065C0001227B6A02FA03F3FB613B681B68FA69AF
:10066C001340BB61BA69FB699A4240F016813B6842
:10067C005B68122B34D0122B0DD8022B2BD0022BF3
:10068C0004D8002B31D0012B1CD048E0032B43D0D5
:10069C00112B1BD043E0874A934226D0854A9342C4
:1006AC0006D8854A934220D0844A93421DD036E026
:1006BC00834A934219D0834A934216D0824A93427A
:1006CC0013D02CE03B68DB683B6228E03B68DB68BE
:1006DC0004333B6223E03B68DB6808333B621EE07B
:1006EC003B68DB680C333B6219E03B689B68002B72
:1006FC0002D104233B6212E03B689B68012B05D1BD
:10070C0008233B627B68FA691A6108E008233B62A4
:10071C007B68FA695A6102E000233B6200BFBB6947
:10072C00FF2B01D87B6801E07B680433FB60BB695D
:10073C00FF2B02D87B6A9B0002E07B6A083B9B0084
:10074C003B61FB681A680F213B6901FA03F3DB4339
:10075C001A40396A3B6901FA03F31A43FB681A60C1
:10076C003B685B6803F08053002B00F09680574B7E
:10077C009B69564A43F001039361544B9B6903F008
:10078C000103BB60BB68524A7B6A9B08023352F878
:10079C0023307B617B6A03F003039B000F2202FA78
:1007AC0003F3DB437A6913407B617B68494A9342CC
:1007BC0013D07B68484A93420DD07B68474A9342DA
:1007CC0007D07B68464A934201D1032306E00423F9
:1007DC0004E0022302E0012300E000237A6A02F025
:1007EC000302920093407A6913437B6138497B6A18
:1007FC009B0802337A6941F823203B685B6803F459
:10080C008033002B06D0374B1A683649BB6913432B
:10081C000B6006E0334B1A68BB69DB43314913406C
:10082C000B603B685B6803F40033002B06D02D4B48
:10083C005A682C49BB6913434B6006E0294B5A6834
:10084C00BB69DB43274913404B603B685B6803F48F
:10085C008013002B06D0234B9A682249BB691343A3
:10086C008B6006E01F4B9A68BB69DB431D49134044
:10087C008B603B685B6803F40013002B06D0194BAC
:10088C00DA681849BB691343CB6006E0154BDA688C
:10089C00BB69DB4313491340CB607B6A01337B623A
:1008AC007B6A0F2B7FF6D4AE00BF2C37BD4680BCC5
:1008BC00704700BF00002110000011100000121042
:1008CC000000311000003210000022100010024015
:1008DC000000014000080140000C014000100140E4
:1008EC00001401400004014080B483B000AF786074
:1008FC000B467B8013467B707B78002B03D07A8869
:10090C007B681A6103E07B881A047B681A6100BF5C
:10091C000C37BD4680BC704780B483B000AF7860A4
:10092C000B467B807B68DA687B885A407B68DA6090
:10093C0000BF0C37BD4680BC7047000080B586B048
:10094C0000AF786000233B617B681B6803F00103F8
:10095C00002B00F08780924B5B6803F00C03042B98
:10096C000CD08F4B5B6803F00C03082B12D18C4B13
:10097C005B6803F48033B3F5803F0BD1884B1B6865
:10098C0003F40033002B6CD07B685B68002B68D1C0
:10099C0001232DE27B685B68B3F5803F06D1804B69
:1009AC001B687F4A43F4803313602EE07B685B68DE
:1009BC00002B0CD17A4B1B68794A23F480331360DB
:1009CC00774B1B68764A23F4802313601DE07B6809
:1009DC005B68B3F5A02F0CD1714B1B68704A43F4C4
:1009EC00802313606E4B1B686D4A43F48033136095
:1009FC000BE06B4B1B686A4A23F480331360684B23
:100A0C001B68674A23F4802313607B685B68002BA8
:100A1C0013D0FFF7D5FC386108E0FFF7D1FC024694
:100A2C003B69D31A642B01D90323E1E15C4B1B68AE
:100A3C0003F40033002BF0D014E0FFF7C1FC386155
:100A4C0008E0FFF7BDFC02463B69D31A642B01D9C1
:100A5C000323CDE1524B1B6803F40033002BF0D180
:100A6C0000E000BF7B681B6803F00203002B63D01F
:100A7C004B4B5B6803F00C03002B0BD0484B5B68B3
:100A8C0003F00C03082B1CD1454B5B6803F480333B
:100A9C00002B16D1424B1B6803F00203002B05D030
:100AAC007B681B69012B01D00123A1E13C4B1B6826
:100ABC0023F0F8027B685B69DB00394913430B6058
:100ACC003AE07B681B69002B20D0364B01221A6060
:100ADC00FFF776FC386108E0FFF772FC02463B69D1
:100AEC00D31A022B01D9032382E12D4B1B6803F08F
:100AFC000203002BF0D02A4B1B6823F0F8027B6812
:100B0C005B69DB00264913430B6015E0254B002283
:100B1C001A60FFF755FC386108E0FFF751FC0246FC
:100B2C003B69D31A022B01D9032361E11C4B1B68CF
:100B3C0003F00203002BF0D17B681B6803F0080361
:100B4C00002B39D07B689B69002B19D0164B0122E6
:100B5C001A60FFF735FC386108E0FFF731FC0246FC
:100B6C003B69D31A022B01D9032341E10C4B5B6A7D
:100B7C0003F00203002BF0D0012000F0B1FA1BE0CF
:100B8C00094B00221A60FFF71BFC38610EE0FFF7DF
:100B9C0017FC02463B69D31A022B07D9032327E122
:100BAC00001002400000424280044242924B5B6AB9
:100BBC0003F00203002BEAD17B681B6803F00403EB
:100BCC00002B00F0A6800023FB758B4BDB6903F038
:100BDC008053002B0DD1884BDB69874A43F080533F
:100BEC00D361854BDB6903F08053FB60FB68012309
:100BFC00FB75824B1B6803F48073002B18D17F4B61
:100C0C001B687E4A43F480731360FFF7D9FB38618D
:100C1C0008E0FFF7D5FB02463B69D31A642B01D9D8
:100C2C000323E5E0754B1B6803F48073002BF0D0B5
:100C3C007B68DB68012B06D16F4B1B6A6E4A43F055
:100C4C00010313622DE07B68DB68002B0CD16A4B2F
:100C5C001B6A694A23F001031362674B1B6A664ADD
:100C6C0023F0040313621CE07B68DB68052B0CD1BA
:100C7C00614B1B6A604A43F0040313625E4B1B6AB0
:100C8C005D4A43F0010313620BE05B4B1B6A5A4A4B
:100C9C0023F001031362584B1B6A574A23F00403D9
:100CAC0013627B68DB68002B15D0FFF789FB38617A
:100CBC000AE0FFF785FB02463B69D31A41F2883202
:100CCC00934201D9032393E04B4B1B6A03F00203BD
:100CDC00002BEED014E0FFF773FB38610AE0FFF74E
:100CEC006FFB02463B69D31A41F28832934201D919
:100CFC0003237DE0404B1B6A03F00203002BEED173
:100D0C00FB7D012B05D13C4BDB693B4A23F0805327
:100D1C00D3617B68DB69002B69D0374B5B6803F0D0
:100D2C000C03082B61D07B68DB69022B46D1344B5A
:100D3C0000221A60FFF744FB386108E0FFF740FB24
:100D4C0002463B69D31A022B01D9032350E02A4BEC
:100D5C001B6803F00073002BF0D17B681B6AB3F5A2
:100D6C00803F08D1244B5B6823F400327B689B687E
:100D7C00214913434B60204B5B6823F474127B684E
:100D8C00196A7B685B6A0B431B4913434B601C4B12
:100D9C0001221A60FFF714FB386108E0FFF710FB23
:100DAC0002463B69D31A022B01D9032320E0124BD4
:100DBC001B6803F00073002BF0D018E0104B0022DE
:100DCC001A60FFF7FDFA386108E0FFF7F9FA0246FE
:100DDC003B69D31A022B01D9032309E0064B1B688C
:100DEC0003F00073002BF0D101E0012300E000239D
:100DFC0018461837BD4680BD0010024000700040F8
:100E0C006000424280B584B000AF78603960002346
:100E1C00FB607E4B1B6803F007033A689A4210D9BB
:100E2C007A4B1B6823F0070278493B6813430B602D
:100E3C00764B1B6803F007033A689A4201D00123F2
:100E4C00E0E07B681B6803F00203002B20D07B687A
:100E5C001B6803F00403002B05D06D4B5B686C4AD8
:100E6C0043F4E06353607B681B6803F00803002BBA
:100E7C0005D0674B5B68664A43F460535360644B20
:100E8C005B6823F0F0027B689B68614913434B60FD
:100E9C007B681B6803F00103002B6AD07B685B68DE
:100EAC00012B07D15A4B1B6803F40033002B15D1CF
:100EBC000123A7E07B685B68022B07D1544B1B68AE
:100ECC0003F00073002B09D101239BE0504B1B68EE
:100EDC0003F00203002B01D1012393E04C4B5B6820
:100EEC0023F003027B685B68494913434B60FFF7AF
:100EFC0067FAF8607B685B68012B12D10AE0FFF798
:100F0C005FFA0246FB68D31A41F28832934201D948
:100F1C00032377E03E4B5B6803F00C03042BEED10C
:100F2C0027E07B685B68022B1DD10AE0FFF748FACB
:100F3C000246FB68D31A41F28832934201D903234B
:100F4C0060E0334B5B6803F00C03082BEED110E030
:100F5C00FFF736FA0246FB68D31A41F28832934205
:100F6C0001D903234EE02A4B5B6803F00C03002BE2
:100F7C00EED1264B1B6803F007033A689A4210D255
:100F8C00224B1B6823F0070220493B6813430B607C
:100F9C001E4B1B6803F007033A689A4201D00123E9
:100FAC0030E07B681B6803F00403002B08D0184B5F
:100FBC005B6823F4E0627B68DB68154913434B6084
:100FCC007B681B6803F00803002B09D0104B5B688F
:100FDC0023F460527B681B69DB000D4913434B60A3
:100FEC0000F01CF801460A4B5B681B0903F00F0369
:100FFC00084AD35C21FA03F3074A13600020FFF779
:10100C009DF9002318461037BD4680BD00200240D4
:10101C0000100240847500080800002090B48AB0CB
:10102C0000AF2A4B3C1D0FCB84E80F00284B1B88CC
:10103C003B800023FB610023BB6100237B62002308
:10104C007B6100233B62234B5B68FB61FB6903F014
:10105C000C03042B02D0082B03D02DE01E4B3B625B
:10106C002DE0FB699B0C03F00F0307F128021344DE
:10107C0013F8243C7B61FB6903F48033002B13D001
:10108C00144B5B685B0C03F0010307F1280213445B
:10109C0013F8283CBB617B690F4A02FB03F2BB6966
:1010AC00B2FBF3F37B6204E07B690C4A02FB03F3B3
:1010BC007B627B6A3B6202E0074B3B6200BF3B6A90
:1010CC0018462837BD4690BC704700BF68730008AF
:1010DC00787300080010024000127A0000093D00ED
:1010EC0080B485B000AF78600A4B1B680A4AA2FB3B
:1010FC0003235B0A7A6802FB03F3FB6000BFFB6807
:10110C005A1EFA60002BF9D100BF1437BD4680BCC3
:10111C00704700BF08000020D34D621080B58AB024
:10112C0002AFF860B9603B601346FB800023BB61E3
:10113C000023FB77FB6893F85030012B01D102237D
:10114C0025E1FB68012283F85020FFF739F9B861DB
:10115C00FB6893F85130DBB2012B02D00223FB77F2
:10116C000CE1BB68002B02D0FB88002B02D10123C1
:10117C00FB7703E1FB68032283F85120FB68002214
:10118C005A65FB68BA681A63FB68FA889A86FB682A
:10119C00FA88DA86FB6800229A63FB6800229A8739
:1011AC00FB680022DA87FB6800225A64FB68002285
:1011BC001A64FB689B68B3F5004F07D1FB681B688A
:1011CC001A68FB681B6842F480421A60FB681B6853
:1011DC001B6803F04003402B07D0FB681B681A68A0
:1011EC00FB681B6842F040021A60FB68DB68B3F5D1
:1011FC00006F47D1FB685B68002B04D0FB68DB8E6B
:10120C009BB2012B38D1BB681A88FB681B68DA606B
:10121C00BB680233BB60FB68DB8E9BB2013B9AB2AE
:10122C00FB68DA8628E0FB681B689B6803F0020306
:10123C00022B0FD1BB681A88FB681B68DA60BB688D
:10124C000233BB60FB68DB8E9BB2013B9AB2FB683E
:10125C00DA8611E03B68002B0BD03B68B3F1FF3F03
:10126C000AD0FFF7ADF80246BB69D31A3A689A4226
:10127C0002D80323FB7781E0FB68DB8E9BB2002B4B
:10128C00D1D148E0FB685B68002B04D0FB68DB8E97
:10129C009BB2012B3AD1FB681B680C33BA681278ED
:1012AC001A70BB680133BB60FB68DB8E9BB2013BE1
:1012BC009AB2FB68DA8629E0FB681B689B6803F02E
:1012CC000203022B10D1FB681B680C33BA6812782E
:1012DC001A70BB680133BB60FB68DB8E9BB2013BB1
:1012EC009AB2FB68DA8611E03B68002B0BD03B68A6
:1012FC00B3F1FF3F0AD0FFF763F80246BB69D31A7C
:10130C003A689A4202D80323FB7737E0FB68DB8EFE
:10131C009BB2002BD0D1BB6900933B680122022108
:10132C00F86800F0E8FA0346002B02D00323FB77A1
:10133C0024E0BA693968F86800F046FB0346002BD4
:10134C0005D00123FB77FB6820225A6516E0FB6869
:10135C009B68002B0AD100237B61FB681B68DB6850
:10136C007B61FB681B689B687B617B69FB685B6DC1
:10137C00002B02D00123FB7700E000BFFB680122A9
:10138C0083F85120FB68002283F85020FB7F18461D
:10139C002037BD4680BD80B588B002AFF860B9601B
:1013AC003B601346FB8000233B610023FB75FB680D
:1013BC005B68B3F5827F12D1FB689B68002B0ED162
:1013CC00FB68042283F85120FA883B68009313468B
:1013DC00BA68B968F86800F0EEF80346E7E0FB6815
:1013EC0093F85030012B01D10223E0E0FB6801227D
:1013FC0083F85020FEF7E4FF3861FB6893F8513016
:10140C00DBB2012B02D00223FB75C7E0BB68002BBB
:10141C0002D0FB88002B02D10123FB75BEE0FB68D8
:10142C00042283F85120FB6800225A65FB68BA68D5
:10143C009A63FB68FA889A87FB68FA88DA87FB68F4
:10144C0000221A63FB6800229A86FB680022DA8667
:10145C00FB6800221A64FB6800225A64FB689B68D4
:10146C00B3F5004F07D1FB681B681A68FB681B6853
:10147C0022F480421A60FB681B681B6803F040036F
:10148C00402B07D0FB681B681A68FB681B6842F08E
:10149C0040021A60FB68DB68002B5BD12AE0FB681A
:1014AC001B689B6803F00103012B11D1FB681B68BF
:1014BC000C331B78DAB2BB681A70BB680133BB60A3
:1014CC00FB68DB8F9BB2013B9AB2FB68DA8711E0B9
:1014DC003B68002B0BD03B68B3F1FF3F0AD0FEF703
:1014EC006FFF02463B69D31A3A689A4202D803232B
:1014FC00FB7553E0FB68DB8F9BB2002BCFD12EE04A
:10150C00FB681B689B6803F00103012B10D1FB687F
:10151C001B68DB689AB2BB681A80BB680233BB607D
:10152C00FB68DB8F9BB2013B9AB2FB68DA8711E058
:10153C003B68002B0BD03B68B3F1FF3F0AD0FEF7A2
:10154C003FFF02463B69D31A3A689A4202D80323FA
:10155C00FB7523E0FB68DB8F9BB2002BD0D1FB68C3
:10156C005B68B3F5827F11D1FB689B68B3F5004FC4
:10157C0004D0FB689B68B3F5806F07D1FB681B68D0
:10158C001A68FB681B6822F040021A60FB685B6DEE
:10159C00002B02D00123FB7500E000BFFB68012289
:1015AC0083F85120FB68002283F85020FB7D1846FD
:1015BC001837BD4680BD80B58CB002AFF860B960FD
:1015CC007A607B800023FB610023BB6100237B617D
:1015DC0001237B62002387F82330FB6893F850309B
:1015EC00012B01D1022382E1FB68012283F85020F8
:1015FC00FEF7E6FE7861FB6893F85130DBB2FB61D5
:10160C00FB685B68BB61FB69012B0ED0BB69B3F552
:10161C00827F06D1FB689B68002B02D1FB69042BEF
:10162C0003D0022387F8233057E1BB68002B05D089
:10163C007B68002B02D07B88002B03D1012387F819
:10164C0023304AE1FB6893F85130DBB2012B03D114
:10165C00FB68052283F85120FB6800225A65FB6861
:10166C007A689A63FB687A88DA87FB687A889A8743
:10167C00FB68BA681A63FB687A88DA86FB687A8832
:10168C009A86FB6800221A64FB6800225A64FB6885
:10169C001B681B6803F04003402B07D0FB681B68DA
:1016AC001A68FB681B6842F040021A60FB68DB6832
:1016BC00B3F5006F71D1FB685B68002B04D0FB683D
:1016CC00DB8E9BB2012B5DD1BB681A88FB681B6853
:1016DC00DA60BB680233BB60FB68DB8E9BB2013BFC
:1016EC009AB2FB68DA864DE07B6A002B1CD0FB6853
:1016FC00DB8E9BB2002B17D0FB681B689B6803F03A
:10170C000203022B10D1BB681A88FB681B68DA60D5
:10171C00BB680233BB60FB68DB8E9BB2013B9AB2A9
:10172C00FB68DA8600237B62FB68DB8F9BB2002BA5
:10173C0018D0FB681B689B6803F00103012B11D1C7
:10174C00FB681B68DB689AB27B681A807B68023383
:10175C007B60FB68DB8F9BB2013B9AB2FB68DA873C
:10176C0001237B623B6BB3F1FF3F0BD0FEF728FEEE
:10177C0002467B69D31A3A6B9A4203D8032387F843
:10178C002330AAE0FB68DB8E9BB2002BACD1FB684C
:10179C00DB8F9BB2002BA7D170E0FB685B68002B42
:1017AC0004D0FB68DB8E9BB2012B5DD1FB681B6800
:1017BC000C33BA6812781A70BB680133BB60FB68D3
:1017CC00DB8E9BB2013B9AB2FB68DA864CE07B6AFB
:1017DC00002B1CD0FB68DB8E9BB2002B17D0FB6858
:1017EC001B689B6803F00203022B10D1BB685A1CC8
:1017FC00BA60FA6812680C321B781370FB68DB8EC7
:10180C009BB2013B9AB2FB68DA8600237B62FB68D1
:10181C00DB8F9BB2002B17D0FB681B689B6803F017
:10182C000103012B10D1FB681B68D9687B685A1C1B
:10183C007A60CAB21A70FB68DB8F9BB2013B9AB21A
:10184C00FB68DA8701237B623B6BB3F1FF3F0BD064
:10185C00FEF7B6FD02467B69D31A3A6B9A4203D85F
:10186C00032387F8233038E0FB68DB8E9BB2002B18
:10187C00ADD1FB68DB8F9BB2002BA8D17B690093A9
:10188C003B6B01220221F86800F035F80346002B6F
:10189C0003D0032387F823301FE07A69396BF8688B
:1018AC0000F092F80346002B06D0012387F8233072
:1018BC00FB6820225A6510E0FB689B68002B0BD15B
:1018CC0000233B61FB681B68DB683B61FB681B68A2
:1018DC009B683B613B6900E000BFFB68012283F819
:1018EC005120FB68002283F8502097F823301846CB
:1018FC002837BD4680BD80B584B000AFF860B960B4
:10190C007A603B604DE03B68B3F1FF3F49D03B68E8
:10191C00002B07D0FEF754FD0246BB69D31A3A6878
:10192C009A423ED8FB681B685A68FB681B6822F019
:10193C00E0025A60FB685B68B3F5827F11D1FB68EB
:10194C009B68B3F5004F04D0FB689B68B3F5806FC0
:10195C0007D1FB681B681A68FB681B6822F0400201
:10196C001A60FB689B6AB3F5005F10D1FB681B68BB
:10197C001968FB681A684DF6FF730B401360FB681F
:10198C001B681A68FB681B6842F400521A60FB68FB
:10199C00012283F85120FB68002283F85020032396
:1019AC000EE0FB681B689A68BB681340BA689A42E1
:1019BC0001D1012200E000227B689A42A3D10023CE
:1019CC0018461037BD4680BD80B586B002AFF860B2
:1019DC00B9607A607B680093BB6800228021F8684C
:1019EC00FFF789FF0346002B07D0FB685B6D43F0C4
:1019FC002002FB685A65032300E0002318461037C9
:101A0C00BD4680BD80B582B000AF78607B68002B8E
:101A1C0001D1012357E07B6800229A627B6893F81E
:101A2C005130DBB2002B02D1786802F083FE7B6868
:101A3C00022283F851207B681B681A687B681B683C
:101A4C0022F040021A607B685A687B689B681A43D4
:101A5C007B68DB681A437B681B691A437B685B698C
:101A6C001A437B689B6903F400731A437B68DB6938
:101A7C001A437B681B6A42EA03017B689A6A7B689B
:101A8C001B680A431A607B689B691B0C03F00401FA
:101A9C007B685A6A7B681B680A435A607B681B68C0
:101AAC007A68D26A1A617B681B68DA697B681B6882
:101ABC0022F40062DA617B6800225A657B6801229D
:101ACC0083F85120002318460837BD4680BD80B5E9
:101ADC0082B000AF78607B68002B01D101231DE040
:101AEC007B6893F83D30DBB2002B06D17B6800227B
:101AFC0083F83C20786802F0B7FF7B68022283F8F9
:101B0C003D207B681A687B6804331946104600F048
:101B1C0019FA7B68012283F83D2000231846083708
:101B2C00BD4680BD80B582B000AF78607B681B6815
:101B3C001B6903F00203022B22D17B681B68DB6854
:101B4C0003F00203022B1BD17B681B686FF00202AF
:101B5C001A617B6801221A777B681B689B6903F00A
:101B6C000303002B03D0786800F0D1F905E0786806
:101B7C0000F0C4F9786800F0D3F97B6800221A777A
:101B8C007B681B681B6903F00403042B22D17B6860
:101B9C001B68DB6803F00403042B1BD17B681B68F8
:101BAC006FF004021A617B6802221A777B681B684B
:101BBC009B6903F44073002B03D0786800F0A7F9FD
:101BCC0005E0786800F09AF9786800F0A9F97B686C
:101BDC0000221A777B681B681B6903F00803082B2B
:101BEC0022D17B681B68DB6803F00803082B1BD130
:101BFC007B681B686FF008021A617B6804221A77F5
:101C0C007B681B68DB6903F00303002B03D0786847
:101C1C0000F07DF905E0786800F070F9786800F064
:101C2C007FF97B6800221A777B681B681B6903F0BD
:101C3C001003102B22D17B681B68DB6803F01003A8
:101C4C00102B1BD17B681B686FF010021A617B682C
:101C5C0008221A777B681B68DB6903F44073002B3E
:101C6C0003D0786800F053F905E0786800F046F985
:101C7C00786800F055F97B6800221A777B681B683E
:101C8C001B6903F00103012B0ED17B681B68DB6819
:101C9C0003F00103012B07D17B681B686FF0010275
:101CAC001A61786800F021F97B681B681B6903F0E6
:101CBC008003802B0ED17B681B68DB6803F08003EC
:101CCC00802B07D17B681B686FF080021A617868E3
:101CDC0000F090FA7B681B681B6903F04003402BF3
:101CEC000ED17B681B68DB6803F04003402B07D1E7
:101CFC007B681B686FF040021A61786800F019F974
:101D0C007B681B681B6903F02003202B0ED17B68BA
:101D1C001B68DB6803F02003202B07D17B681B6852
:101D2C006FF020021A61786800F05BFA00BF083788
:101D3C00BD4680BD80B584B000AF786039600023AB
:101D4C00FB607B6893F83C30012B01D10223C8E087
:101D5C007B68012283F83C207B68022283F83D20BB
:101D6C007B681B689B68FB60FB6823F07703FB6058
:101D7C00FB6823F47F43FB607B681B68FA689A60FE
:101D8C003B681B68402B77D0402B0ED8102B00F0F3
:101D9C008A80102B02D8002B7ED099E0202B00F0EB
:101DAC008980302B00F08D8092E0702B16D0702B38
:101DBC0004D8502B40D0602B4ED089E0B3F5805F17
:101DCC0003D0B3F5005F24D082E07B681B689A686F
:101DDC007B681B6822F007029A6079E07B681868C0
:101DEC003B6899683B685A683B68DB6800F094F97B
:101DFC007B681B689B68FB60FB6823F07703FB60C8
:101E0C00FB6843F07703FB607B681B68FA689A6099
:101E1C005EE07B6818683B6899683B685A683B6869
:101E2C00DB6800F079F97B681B689A687B681B6833
:101E3C0042F480429A604BE07B6818683B685968B2
:101E4C003B68DB681A4600F0E3F87B681B6850219E
:101E5C00184600F042F93BE07B6818683B6859680B
:101E6C003B68DB681A4600F005F97B681B6860214B
:101E7C00184600F032F92BE07B6818683B6859680B
:101E8C003B68DB681A4600F0C3F87B681B6840218E
:101E9C00184600F022F91BE07B681B6800211846ED
:101EAC0000F01BF914E07B681B681021184600F049
:101EBC0014F90DE07B681B682021184600F00DF921
:101ECC0006E07B681B683021184600F006F900BF5D
:101EDC007B68012283F83D207B68002283F83C203C
:101EEC00002318461037BD4680BD80B483B000AFC8
:101EFC00786000BF0C37BD4680BC704780B483B09F
:101F0C0000AF786000BF0C37BD4680BC704780B412
:101F1C0083B000AF786000BF0C37BD4680BC704703
:101F2C0080B483B000AF786000BF0C37BD4680BC76
:101F3C00704780B483B000AF786000BF0C37BD46EB
:101F4C0080BC704780B485B000AF786039600023E6
:101F5C00FB607B681B68FB607B682A4A93420BD052
:101F6C007B68B3F1804F07D07B68274A934203D03C
:101F7C007B68264A934208D1FB6823F07003FB6010
:101F8C003B685B68FA681343FB607B681D4A9342AD
:101F9C000BD07B68B3F1804F07D07B681A4A934211
:101FAC0003D07B68194A934208D1FB6823F4407331
:101FBC00FB603B68DB68FA681343FB60FB6823F04B
:101FCC008003FB603B685B69FA681343FB607B68CA
:101FDC00FA681A603B689A687B68DA623B681A6830
:101FEC007B689A627B68074A934203D13B681A6903
:101FFC007B681A637B6801225A6100BF1437BD46A7
:10200C0080BC7047002C01400004004000080040D8
:10201C0080B487B000AFF860B9607A6000237B6150
:10202C0000233B61FB681B6A3B61FB681B6A23F066
:10203C000102FB681A62FB689B697B617B6923F078
:10204C00F0037B617B681B017A6913437B613B69FD
:10205C0023F00A033B613A69BB6813433B61FB689D
:10206C007A699A61FB683A691A6200BF1C37BD46EF
:10207C0080BC704780B487B000AFF860B9607A60FC
:10208C0000237B6100233B61FB681B6A23F0100279
:10209C00FB681A62FB689B697B61FB681B6A3B618E
:1020AC007B6923F470437B617B681B037A69134360
:1020BC007B613B6923F0A0033B61BB681B013A6960
:1020CC0013433B61FB687A699A61FB683A691A624F
:1020DC0000BF1C37BD4680BC704780B485B000AFD4
:1020EC0078600B467B800023FB607B689B68FB6001
:1020FC00FB6823F07003FB607B8843F007039BB203
:10210C001A46FB681343FB607B68FA689A6000BF51
:10211C001437BD4680BC704780B487B000AFF86000
:10212C00B9607A603B6000237B61FB689B687B61D4
:10213C007B6923F47F437B613B681A027B681A43FB
:10214C00BB6813437A6913437B61FB687A699A60B5
:10215C0000BF1C37BD4680BC704780B483B000AF55
:10216C00786039607B6893F83C30012B01D10223F5
:10217C0032E07B68012283F83C207B68022283F8E2
:10218C003D207B681B685A687B681B6822F07002D4
:10219C005A607B681B6859683B681A687B681B68C7
:1021AC000A435A607B681B689A687B681B6822F03C
:1021BC0080029A607B681B6899683B685A687B68E8
:1021CC001B680A439A607B68012283F83D207B6878
:1021DC00002283F83C20002318460C37BD4680BCF7
:1021EC00704780B483B000AF786000BF0C37BD4639
:1021FC0080BC704780B483B000AF786000BF0C37F0
:10220C00BD4680BC7047000080B582B000AF7860DE
:10221C0039600B4A7B681A607B683A68043392E831
:10222C00030083E803003B6818683B689B88002226
:10223C001946FEF759FB7B6818460837BD4680BD2A
:10224C000C74000880B582B000AF7860074A7B68D8
:10225C001A607B6858687B681B8901221946FEF757
:10226C0043FB7B6818460837BD4680BD0C740008DC
:10227C0080B582B000AF78607868FFF7E3FF7868CC
:10228C0003F002FA7B6818460837BD4680BD000093
:10229C0080B584B000AF7860396007F10C03184644
:1022AC0003F0FCF907F10C031A460A49786803F0AD
:1022BC00C9FB07F10C03184603F0F1F906E007F12E
:1022CC000C03184603F0EBF902F0AAFF78681037FC
:1022DC00BD4680BD7C73000880B582B000AF7860CD
:1022EC007B68184603F074FA7B681833184603F0C1
:1022FC006FFA7B683033184603F06AFA7B6818462D
:10230C000837BD4680BD80B582B000AF78607B6871
:10231C003033184603F07DFA7B681833184603F007
:10232C0078FA7B68184603F074FA7B68184608370D
:10233C00BD4680BD80B582B000AF786039607868EA
:10234C00FFF7CAFF7B680D49184603F01EFB7B683C
:10235C0030330B49184603F018FB7B6818330949D6
:10236C00184603F012FB04E07868FFF7CCFF02F08C
:10237C0057FF78680837BD4680BD00BF90730008D2
:10238C009C730008A873000880B483B000AF786019
:10239C00012318460C37BD4680BC704780B483B00F
:1023AC0000AF7860044A7B681A607B6818460C376B
:1023BC00BD4680BC704700BFF076000880B582B087
:1023CC0000AF78607B681846FFF7E8FF034A7B682C
:1023DC001A607B6818460837BD4680BDA477000894
:1023EC0098B500AF042003F0AFF803461C46002359
:1023FC0023602046FFF7E2FF024A0349204602F021
:10240C00CBFB00BF995A00087C77000880B582B0DE
:10241C0000AF78607B685B68002B01D1FFF7E0FFB1
:10242C007B685B685A1C7B685A6000BF0837BD46E6
:10243C0080BD80B582B000AF78607B685B685A1E47
:10244C007B685A607B685B68002B0CBF0123002300
:10245C00DBB2002B19D07B681B6808331B687868CB
:10246C0098477B689B685A1E7B689A607B689B6860
:10247C00002B0CBF01230023DBB2002B05D07B68A3
:10248C001B680C331B687868984700BF0837BD463B
:10249C0080BD80B483B000AF78607B689B685A1CA9
:1024AC007B689A6000BF0C37BD4680BC704780B516
:1024BC0082B000AF78607B689B685A1E7B689A601C
:1024CC007B689B68002B0CBF01230023DBB2002B25
:1024DC0005D07B681B680C331B687868984700BF75
:1024EC000837BD4680BD80B483B000AF78607B6890
:1024FC0000221A607B6818460C37BD4680BC7047BA
:10250C0080B483B000AF78607B6803F01F0318467B
:10251C000C37BD4680BC704780B582B000AF786088
:10252C007868FFF7EDFF0246012393401846083701
:10253C00BD4680BD80B483B000AF786039607B68E5
:10254C0018460C37BD4680BC7047B0B584B000AFA0
:10255C00F860B9607A60FB68184600F09FFBFB6876
:10256C0003F10804786800F082FB03461946204604
:10257C0000F0A1FBFB68BA6803F10C0415460FCD03
:10258C000FC42B682360FB682033184600F062FBF5
:10259C00FB6818461037BD46B0BD80B59AB000AF89
:1025AC0078607B68D8687B681B8A00221946FEF726
:1025BC009BF93220FDF70EFF7B68D8687B681B8A7D
:1025CC0001221946FEF790F94FF4FA60FDF702FF6D
:1025DC007B680833184600F08AFB024607F10803B3
:1025EC0011461846FFF754FE07F1080319467868A0
:1025FC0000F03EF807F10803184603F00AF97B686F
:10260C000833184600F073FB03461846FFF7BCFE70
:10261C000346002B17D07B680833184600F067FB85
:10262C00024607F1200311461846FFF783FE07F117
:10263C0020031946786800F051F807F1200318467A
:10264C00FFF761FE11E0786800F0D8F80DE007F1B3
:10265C000803184603F0DDF802F0E2FD07F1200351
:10266C001846FFF750FE02F0DBFD6837BD4680BD13
:10267C00F0B58BB004AF78603960386803F089F935
:10268C00064607F10804013407F10803023307F189
:10269C000802033207F10801043107F10800053084
:1026AC0007F10805039002910192009323462A46F4
:1026BC000949304604F086F907F1080241F28833E3
:1026CC0001930023009306230921786800F09FF8FA
:1026DC0000BF1C37BD46F0BDB873000890B591B073
:1026EC0002AF7860396007F1300300221A605A603B
:1026FC0007F1280300221A605A6007F12003002218
:10270C001A605A6007F1100300221A605A609A602E
:10271C00DA603B681833184603F03BF9044607F1BE
:10272C000801013107F10803023307F108020332F3
:10273C0007F10800019200930B4602462E492046F1
:10274C0004F040F907F1080241F2883301930023A9
:10275C00009304230521786800F059F83B6818466B
:10276C0003F017F9044607F10801013107F10803DA
:10277C00023307F10802033207F1080001920093BB
:10278C000B4602461C49204604F01CF907F10802CE
:10279C0041F28833019300230093042301217868CC
:1027AC0000F035F83B683033184603F0F2F8044675
:1027BC0007F10801013107F10803023307F10802A0
:1027CC00033207F10800019200930B4602460A49B6
:1027DC00204604F0F7F807F1080241F28833019320
:1027EC000023009304230F21786800F010F800BF39
:1027FC003C37BD4690BD00BFCC73000880B483B09D
:10280C0000AF786000BF0C37BD4680BC704790B5F8
:10281C008BB000AFF8607A603B600B467B81FB6845
:10282C0003F1140207F1180311461846FFF7ECFCEC
:10283C0007F10A037B62FB68D8697B6A591CFB6B46
:10284C000122FEF76BFC0346002B14BF012300236F
:10285C00DBB2002B01D000243DE0FB68D869FB6B98
:10286C000122796AFEF75AFC0346002B14BF0123A0
:10287C000023DBB2002B01D000242CE00423FB75D9
:10288C00FA7D97F838301343DBB2FB75FB68D869D7
:10289C0007F11701FB6B0122FEF740FC0346002BEE
:1028AC0014BF01230023DBB2002B01D0002412E063
:1028BC00FB68D8693B689AB2FB6B7968FEF72EFC13
:1028CC000346002B14BF01230023DBB2002B01D0E5
:1028DC00002400E0012407F118031846FFF7B2FCAE
:1028EC00012C06E007F118031846FFF7ABFC02F0C9
:1028FC0097FC2C37BD4690BD90B58BB000AFF860FF
:10290C007A603B600B467B81FB6803F1140207F194
:10291C00180311461846FFF777FC07F10A037B6290
:10292C00FB68D8697B6A591CFB6B0122FEF7F6FB2E
:10293C000346002B14BF01230023DBB2002B01D074
:10294C0000242EE0FB68D869FB6B0122796AFEF744
:10295C00E5FB0346002B14BF01230023DBB2002B45
:10296C0001D000241DE097F83830FB75FB68D8695E
:10297C0007F11701FB6B0122FEF7D0FB0346002B7E
:10298C0014BF01230023DBB2002B01D0002408E08C
:10299C00FB68D8693B689AB2FB6B7968FEF7FBFC65
:1029AC00012407F118031846FFF74CFC012C06E034
:1029BC0007F118031846FFF745FC02F031FC2C37E1
:1029CC00BD4690BD80B582B000AF78607B6818467C
:1029DC0002F0FEFE7B6818460837BD4680BD80B508
:1029EC0082B000AF78607B68184602F012FF7B68FB
:1029FC0018460837BD4680BD80B582B000AF786000
:102A0C007B680433184600F0F0F97B6818460837E9
:102A1C00BD4680BD80B582B000AF78607B6818463B
:102A2C00FFF7EAFF7B6818460837BD4680BD80B5C6
:102A3C0082B000AF78607B680433184600F0F7F979
:102A4C007B6818460837BD4680BD80B582B000AFA4
:102A5C0078607B681846FFF7EAFF7B6818460837F2
:102A6C00BD4680BD80B582B000AF786039607B68B0
:102A7C003A681146184602F0B3FF3B681A8B7B6824
:102A8C001A833B68DA697B68DA613B681A6A7B688F
:102A9C001A627B6818460837BD4680BD90B5A3B056
:102AAC0000AFF860B9607A607B8007F11C031846B0
:102ABC00FFF788FF786800F026F9024607F11C033F
:102ACC001146184602F0ABFE7B88BB86D7F89830CF
:102ADC00BB630823FB630023C7F88430D7F884302A
:102AEC00072B38DCBB6803F12001D7F8842007F1F1
:102AFC004003184600F011F907F14003184600F0A6
:102B0C0025F9034683F00103DCB207F140031846B4
:102B1C0000F012F9002C18D0D7F88430FB63BB6896
:102B2C0003F12001D7F8842007F14803184600F080
:102B3C00F4F807F148030121184600F01EF907F1DB
:102B4C004803184600F0F8F805E0D7F88430013354
:102B5C00C7F88430C2E7BA6807F114031146184667
:102B6C0000F035F9BA6807F158031146184600F021
:102B7C002EF907F1580207F150031146184600F0E0
:102B8C0046F907F11C0207F1600311461846FFF7DE
:102B9C0069FF07F1600207F150031946F86800F06D
:102BAC00D1FB07F160031846FFF719FF07F150033B
:102BBC001846FFF74AFF07F158031846FFF72AFF9C
:102BCC0007F114031846FFF725FF07F11C031846FD
:102BDC00FFF705FF1DE007F160031846FFF7FFFE46
:102BEC00FFE707F150031846FFF72FFF07F15803D3
:102BFC001846FFF70FFFFFE707F114031846FFF71E
:102C0C0009FFFFE707F11C031846FFF7E8FE02F087
:102C1C0007FBF8688C37BD4690BD80B584B000AF1B
:102C2C00786039607B6803F120013A6807F108038A
:102C3C00184600F072F807F108030021184600F05E
:102C4C009CF807F10803184600F076F800BF10371F
:102C5C00BD4680BD80B582B000AF78607B681846F9
:102C6C00FFF741FC7B6818460837BD4680BD80B431
:102C7C0083B000AF78607B6818460C37BD4680BCCB
:102C8C00704780B582B000AF78607B68184600F062
:102C9C00E0F87B6818460837BD4680BD80B582B029
:102CAC0000AF78607B681846FFF7EBFF7B6818462F
:102CBC000837BD4680BDB0B582B000AF78603960D2
:102CCC007C68386800F0D6F80546386800F0E6F8FD
:102CDC000346184600F0EFF803461A4629462046EC
:102CEC0000F0F3F87B6818460837BD46B0BD80B5D8
:102CFC0082B000AF7860786800F00AF90346184695
:102D0C000837BD4680BD80B483B000AF78607B6867
:102D1C0018460C37BD4680BC704780B584B000AFF8
:102D2C00F860B9607A607A68B968F86800F0FDF804
:102D3C00F8681037BD4680BD80B483B000AF7860B2
:102D4C007B6818460C37BD4680BC704790B583B085
:102D5C0000AF78607B681B681C687B685B681846F2
:102D6C00FFF7DAFB03462340002B14BF012300239B
:102D7C00DBB218460C37BD4690BD80B582B000AFB3
:102D8C0078600B46FB70FB78002B0DD07B685B6882
:102D9C001846FFF7C1FB01467B681B681A687B6805
:102DAC001B680A431A600DE07B685B681846FFF7E6
:102DBC00B3FB0346D9437B681B681A687B681B68A6
:102DCC000A401A607B6818460837BD4680BD80B53E
:102DDC0082B000AF786039603B681946786800F0C3
:102DEC00BDF878680837BD4680BD80B582B000AFAD
:102DFC0078607B681B68002B04D07B681B681846C6
:102E0C00FFF717FB7B6818460837BD4680BD80B5B9
:102E1C0082B000AF786039607B683A68114618461A
:102E2C0000F0ACF87B6818460837BD4680BD80B50D
:102E3C0082B000AF78607B681B68002B04D07B6885
:102E4C001B681846FFF733FB7B6818460837BD46EE
:102E5C0080BD80B582B000AF78607B6800221A60BC
:102E6C007B680433184600F09FF87B6818460837D7
:102E7C00BD4680BD80B584B000AF7860786800F046
:102E8C0047F8F8607B68184600F035F802460023D6
:102E9C001360FB6818461037BD4680BD80B582B004
:102EAC0000AF78607B68184600F08BF80346184634
:102EBC000837BD4680BD80B483B000AF78607B68B6
:102ECC0018460C37BD4680BC704790B585B000AF36
:102EDC00F860B9607A60FC687868FFF7ECFF02462E
:102EEC0007F108031946204600F078F8FB681846ED
:102EFC001437BD4690BD80B582B000AF78607B685A
:102F0C00184600F084F8034618460837BD4680BDC5
:102F1C0080B582B000AF78607B68184600F084F80A
:102F2C00034618460837BD4680BD80B584B000AF57
:102F3C00F860B9607A60BB6879681846FFF7FAFAEE
:102F4C000246FB681A607868FFF7DAFA0246FB68FB
:102F5C005A60FB6818461037BD4680BD80B582B0FC
:102F6C0000AF786039607B683A681146184600F00B
:102F7C0069F87B6818460837BD4680BD80B582B0BD
:102F8C0000AF786039603B681A687B681A607B68B0
:102F9C001A1D3B6804331946104600F069F87B682B
:102FAC0018460837BD4680BD80B483B000AF78604A
:102FBC007B6800221A607B6818460C37BD4680BCC3
:102FCC00704780B582B000AF78607B68184600F01F
:102FDC0066F8034618460837BD4680BDB0B584B0C8
:102FEC0000AFF860B9607A60FC68B86800F063F80C
:102FFC0005467868FFF75FFF03461A4629462046C8
:10300C0000F063F8FB6818461037BD46B0BD80B5BC
:10301C0082B000AF78607B68184600F072F8034607
:10302C0018460837BD4680BD80B582B000AF7860C9
:10303C007B68184600F071F803461B681846083781
:10304C00BD4680BD80B582B000AF786039607B68CA
:10305C001A1D3B6804331946104600F06BF83B68A8
:10306C001A687B681A607B6818460837BD4680BDB5
:10307C0080B582B000AF786039603B681A687B68B5
:10308C001A607B681B68002B04D07B681B68184691
:10309C00FFF7FFF97B6818460837BD4680BD80B541
:1030AC0082B000AF7860786800F05EF8034618468E
:1030BC000837BD4680BD80B483B000AF78607B68B4
:1030CC0018460C37BD4680BC704790B585B000AF34
:1030DC00F860B9607A607868FFF7EDFE0346194630
:1030EC00F86800F04DF8FC68B868FFF7E4FF034699
:1030FC001946204600F056F8FB6818461437BD46B2
:10310C0090BD80B582B000AF7860786800F05BF855
:10311C00034618460837BD4680BD80B582B000AF67
:10312C0078607B68184600F05BF803461846083751
:10313C00BD4680BD80B582B000AF786039603B6819
:10314C001A687B681A607B681B68002B05D07B684B
:10315C001B681846FFF75AF901E0FFF741F97B6845
:10316C0018460837BD4680BD80B582B000AF786088
:10317C00786800F041F8034618460837BD4680BD14
:10318C0080B582B000AF786039603868FFF793FE85
:10319C0003461946786800F03BF87B6818460837F8
:1031AC00BD4680BD80B582B000AF786039603868AC
:1031BC00FFF781FF03461A687B681A607B68184624
:1031CC000837BD4680BD80B582B000AF78607B68A3
:1031DC00184600F02AF8034618460837BD4680BD4D
:1031EC0080B582B000AF7860786800F028F80346AC
:1031FC0018460837BD4680BD80B582B000AF7860F8
:10320C00786800F029F8034618460837BD4680BD9B
:10321C0080B582B000AF786039603868FFF74BFE3C
:10322C007B6818460837BD4680BD80B483B000AFBC
:10323C0078607B6818460C37BD4680BC704780B5FB
:10324C0082B000AF78607B68184600F00FF8034638
:10325C0018460837BD4680BD80B483B000AF786097
:10326C007B6818460C37BD4680BC704780B483B071
:10327C0000AF78607B6818460C37BD4680BC704741
:10328C0080B483B000AF78607B685B68002B01D1A1
:10329C00002305E07B685B685A1C7B685A6001233D
:1032AC0018460C37BD4680BC704780B483B000AF65
:1032BC0078607B685B6818460C37BD4680BC7047ED
:1032CC0080B582B000AF786039603B681A687B6863
:1032DC001A607B681A1D3B6804331946104600F0CF
:1032EC0087F97B6818460837BD4680BD80B582B02B
:1032FC0000AF786039607B683A6811461846FFF772
:10330C00DFFF7B6818460837BD4680BD80B582B0AC
:10331C0000AF786039607B683A681146184602F055
:10332C005EFA3B681A8B7B681A833B68DA697B68A8
:10333C00DA613B681A6A7B681A627B681846083740
:10334C00BD4680BD90B58DB002AFF860B9607A60B3
:10335C00684AFB681A60FB680433B9681846FFF7C3
:10336C00C5FFFB6803F10C04786800F037F90346DD
:10337C0019462046FFF7CAFF7B681B6A072B01D949
:10338C0001F09BF97B681B6ADBB25B01DBB243F09B
:10339C000803DBB23B6207F11803B968184600F06A
:1033AC003EF907F11803184600F047F90346002BC5
:1033BC0000F08380504B1B88BB8207F11803184622
:1033CC0000F04BF93B6ADBB207F1140141F2883291
:1033DC000192009302230A460421FFF718FA7B6836
:1033EC00DB69012B14D102237B7407F118031846F7
:1033FC0000F033F93B6ADBB207F1110141F288327C
:10340C000192009301230A460021FFF700FA17E00E
:10341C007B68DB69002B13D101233B7407F1180384
:10342C00184600F01AF93B6ADBB207F1100141F2C1
:10343C0088320192009301230A460021FFF7E7F935
:10344C000123FB7407F11803184600F006F93B6AD8
:10345C00DBB207F1130141F2883201920093012390
:10346C000A460121FFF7D3F91420FCF7B3FF07F14B
:10347C001803184600F0F1F83B6ADBB207F11201B1
:10348C0041F288320192009301230A460321FFF78F
:10349C0033FABB7C222B10D100237B627B6A132B6B
:1034AC000BDC6420FCF796FF4FF400511348FDF73A
:1034BC0033FA7B6A01337B62F0E707F11803184695
:1034CC00FFF7A8FAFB6811E007F118031846FFF79D
:1034DC00A1FAFFE7FB680C331846FFF780FAFB688C
:1034EC0004331846FFF7B1FA01F09AFE18462C3750
:1034FC00BD4690BD30740008D87300080010014020
:10350C0080B584B000AF7860194A7B681A607B681C
:10351C001A1D07F108031146184600F080F807F150
:10352C000803184600F089F80346002B0BD007F16E
:10353C000803184600F091F802467B68DB6A1946CE
:10354C001046FFF76AFB07F108031846FFF762FA0B
:10355C007B680C331846FFF742FA7B680433184635
:10356C00FFF773FA7B6818461037BD4680BD00BF65
:10357C003074000880B582B000AF78607868FFF7CF
:10358C00BFFF786802F080F87B6818460837BD46A4
:10359C0080BD000080B483B000AF7860094B1B681D
:1035AC005A1C08490A60132BCCBF01230023DBB241
:1035BC00002B01D0022300E0002318460C37BD4637
:1035CC0080BC70479800002080B483B000AF786056
:1035DC00396000BF0C37BD4680BC704780B483B0E7
:1035EC0000AF78607B6818460C37BD4680BC7047CE
:1035FC0080B582B000AF786039603B681A687B6830
:10360C001A607B681B68002B04D07B681B6818460B
:10361C00FEF73FFF7B6818460837BD4680BD80B576
:10362C0082B000AF786039601A463968786800F06B
:10363C0020F878680837BD4680BD80B483B000AFF1
:10364C0078607B681B68002B14BF01230023DBB25E
:10365C0018460C37BD4680BC704780B582B000AFB1
:10366C007860786800F016F8034618460837BD46AF
:10367C0080BD90B585B000AFF860B9603A71FB6859
:10368C00B9682246184600F011F8FB681846143742
:10369C00BD4690BD80B582B000AF7860786800F010
:1036AC0026F8034618460837BD4680BD90B585B050
:1036BC0000AFF860B9603A71FB68181DBB68043341
:1036CC002246194600F01EF8FB680433184600F039
:1036DC003AF80346002B02D0BB681B6800E00023BD
:1036EC00FA681360FB6818461437BD4690BD80B469
:1036FC0083B000AF78607B681B6818460C37BD46FA
:10370C0080BC704780B584B000AFF860B9603A7186
:10371C00BB681A68FB681A60FB681B68002B0DD02D
:10372C00FB681B681846FFF7ABFD034683F00103EB
:10373C00DBB2002B02D0FB6800221A60FB68184633
:10374C001037BD4680BD80B582B000AF78607B6815
:10375C001B68002B06D07B681B681846FFF7A5FD7D
:10376C00034600E0002318460837BD4680BD80B5EF
:10377C0082B000AF78607B6804331846FFF74AF9D3
:10378C007B6818460837BD4680BD000090B58DB0EB
:10379C0000AF07F11C0300221A605A609A60DA60CD
:1037AC001A61194BFB6108233B84174B7B62102376
:1037BC003B85164BFB6207F1140300221A605A601A
:1037CC00134B7B614FF400533B8307F1140207F159
:1037DC001C013B46184600F03DF83B46184600F0ED
:1037EC0093F8044600BF3B461846FFF7C0FF23463C
:1037FC0005E03B461846FFF7BAFF01F011FD1846ED
:10380C003437BD4690BD00BF000801409C0000202D
:10381C000010014080B483B000AF786039603B6821
:10382C0018460C37BD4680BC704780B483B000AFDF
:10383C007860396000BF0C37BD4680BC7047000013
:10384C0080B400AF024B1846BD4680BC704700BF29
:10385C005074000880B586B000AFF860B9607A602B
:10386C00FB6801221A60012001F0CAFC03461A46CB
:10387C0007F114031146184600F0EFF8FB68043307
:10388C0007F11402B968184600F015F907F1140392
:10389C00184600F0F1F8FB687A680C3392E80300E4
:1038AC0083E80300FB6804331846FFF7D6FE034693
:1038BC001846FEF772FEFB680DE007F1140318467C
:1038CC0000F0DAF801F0ACFCFB6804331846FFF7A3
:1038DC00A1F801F0A5FC18461837BD4680BD80B58F
:1038EC0082B000AF786039603B681846FCF772FD17
:1038FC007B68DA687B681B8A19461046FDF70CF862
:10390C0000BF0837BD4680BD90B59FB002AF786050
:10391C007B6804331846FFF7A0FE044607F15003FA
:10392C00184601F0BBFE07F1500207F1380340497D
:10393C00184602F087F807F1080007F13802012356
:10394C00009341F270732146FFF7A8F807F1380392
:10395C00184601F05EFF07F15003184601F09FFE78
:10396C007B681B68002B36D007F108031846FFF75D
:10397C0011FE0346022B0CBF01230023DBB2002BEC
:10398C0024D040F6B8317868FFF7A9FF07F16C0333
:10399C00184601F083FE07F16C0207F15403254928
:1039AC00184602F04FF807F1540207F108031146CC
:1039BC001846FFF709FE07F15403184601F029FFDA
:1039CC0007F16C03184601F06AFEC9E7C821786854
:1039DC00FFF785FFC4E7002407F108031846FFF73B
:1039EC008FFD23461FE007F13803184601F011FF45
:1039FC00FFE707F15003184601F051FE01F010FCEF
:103A0C0007F15403184601F004FFFFE707F16C03BC
:103A1C00184601F044FEFFE707F108031846FFF7CC
:103A2C006FFD01F0FDFB18467437BD4690BD00BF1D
:103A3C00DC730008EC73000880B582B000AF7860CE
:103A4C007B68002B05D07B681B6804331B68786887
:103A5C00984700BF0837BD4680BD80B582B000AF27
:103A6C00786039607B683968184600F06EF87B68BE
:103A7C0018460837BD4680BD80B584B000AF78606D
:103A8C007B681846FFF737FAF860FB681B68002B59
:103A9C0009D07868FFF702FA0246FB681B681946E2
:103AAC00104600F066F8FB6800221A607B68184626
:103ABC001037BD4680BD90B587B000AFF860B960D7
:103ACC007A6007F11403184600F05FF8B86800F04C
:103ADC0074F80446786800F07AF80346F86807F141
:103AEC001401224600F07DF800BF07F114031846BC
:103AFC0000F057F806E007F11403184600F051F8EF
:103B0C0001F08EFBF8681C37BD4690BD80B483B0C5
:103B1C0000AF7860044A7B681A607B6818460C37E3
:103B2C00BD4680BC704700BF7C74000880B582B075
:103B3C0000AF78607868FFF7E9FF786801F0A4FDC2
:103B4C007B6818460837BD4680BD80B582B000AF93
:103B5C00786039607B68184600F05CF87868FFF78D
:103B6C00CAF902463B6813607B6818460837BD46A5
:103B7C0080BD80B582B000AF78603960386801F0E4
:103B8C0083FD00BF0837BD4680BD80B582B000AF55
:103B9C007860786800F04BF87B6818460837BD46AB
:103BAC0080BD80B582B000AF7860786800F049F8CD
:103BBC007B6818460837BD4680BD80B483B000AF23
:103BCC0078607B6818460C37BD4680BC704780B463
:103BDC0083B000AF78607B6818460C37BD4680BC5C
:103BEC007047B0B584B000AFF860B9607A603B60E4
:103BFC00BC687868FFF7E1FF05463868FFF7E7FF18
:103C0C0003462A462146F86800F025F8F868103774
:103C1C00BD46B0BD80B582B000AF78607B681846F9
:103C2C0000F033F87B6818460837BD4680BD80B479
:103C3C0083B000AF78607B6818460C37BD4680BCFB
:103C4C00704780B483B000AF78607B6818460C373F
:103C5C00BD4680BC7047B0B584B000AFF860B960A9
:103C6C007A603B60FC687868FFF7A7FF0546386808
:103C7C00FFF7ADFF03462A46B968204600F015F859
:103C8C00FB6818461037BD46B0BD80B582B000AF9A
:103C9C007860786800F030F87B68184600F038F8E7
:103CAC007B6818460837BD4680BDF0B587B002AFBB
:103CBC00F860B9607A603B60FB6800221A60FB68B0
:103CCC001C1DFD687868FFF778FF06463868FFF71B
:103CDC007EFF034600933346BA682946204600F01F
:103CEC0024F8FB681B681946F86800F094F8FB6828
:103CFC0018461437BD46F0BD80B582B000AF786071
:103D0C00786800F0A2F87B6818460837BD4680BD7D
:103D1C0080B483B000AF78607B6800221A607B6847
:103D2C0018460C37BD4680BC70472DE9F0438BB06C
:103D3C0000AFF860B9607A603B607A6807F11803ED
:103D4C001146184600F08BF807F1100307F1180222
:103D5C001146184600F09CF807F11003184600F0C5
:103D6C00BFF878627A6807F11C031146184600F018
:103D7C00C5F807F11C063868FFF71FFF8046B86CC2
:103D8C00FFF725FF81467D6A29463020FFF742FD6B
:103D9C0004464B4642463146204600F0D5F83C627C
:103DAC0007F11C031846FFF7FCFE07F11003002176
:103DBC00184600F00FF9FB683A6A1A60386A00F08E
:103DCC0017F90246BB681A6007F11003184600F099
:103DDC0072F807F11803184600F04EF8FB6815E06E
:103DEC0029462046FFF721FD07F11C031846FFF773
:103DFC00D8FE07F11003184600F05DF8FFE707F155
:103E0C001803184600F038F801F00AFA18462C3757
:103E1C00BD46BDE8F08380B584B000AF78603960F2
:103E2C007B6804333968184600F0F0F8F860FB68DA
:103E3C00002B06D07B6804331A463968F86800F00A
:103E4C00F0F800BF1037BD4680BD80B483B000AF22
:103E5C0078607B6818460C37BD4680BC704780B5CF
:103E6C0082B000AF78603960786800F0EAF87B685F
:103E7C0018460837BD4680BD80B582B000AF78606B
:103E8C00786800F0E8F87B6818460837BD4680BDB6
:103E9C0080B582B000AF786039600121386800F0DD
:103EAC00E4F803461A463968786800F0EDF878684B
:103EBC000837BD4680BD80B582B000AF78607B68A6
:103ECC005B68002B07D07B6818687B685B680122F5
:103EDC00194600F0EDF87B6818460837BD4680BDE2
:103EEC0080B582B000AF78607B685B68184600F0E4
:103EFC00EEF8034618460837BD4680BD80B582B043
:103F0C0000AF786039603968786800F0EAF87B684F
:103F1C0018460837BD4680BD80B582B000AF7860CA
:103F2C007868FFF73EFE7B6818460837BD4680BDB3
:103F3C0080B582B000AF78607868FFF7EDFF7B68E2
:103F4C0018460837BD4680BDB0B586B000AFF860E6
:103F5C00B9607A603B60FB68184600F0CDF81C4AEB
:103F6C00FB681A60FB6803F10C0407F11403B968D1
:103F7C001846FFF7C3FF07F114031946204600F05B
:103F8C00D1F807F114031846FFF70BFEF86800F0A0
:103F9C002FF804467868FFF710FE05463868FFF7DF
:103FAC0016FE03462A462146B86800F0C9F8FB689D
:103FBC000AE0FB680C331846FFF7BAFFFB6818469B
:103FCC00FFF7A4FD01F02CF918461837BD46B0BD1B
:103FDC006074000880B483B000AF786039607B688F
:103FEC0000225A607B6818460C37BD4680BC70476F
:103FFC0080B582B000AF78607B680C33184600F057
:10400C00B7F8034618460837BD4680BD80B483B068
:10401C0000AF786039603B6818460C37BD4680BCF1
:10402C00704780B584B000AFF860B9607A60FB6807
:10403C007A68B968184600F0A7F800BF1037BD467B
:10404C0080BD80B483B000AF78607B6818460C37B5
:10405C00BD4680BC704780B483B000AF78607B688D
:10406C0018460C37BD4680BC704780B582B000AF97
:10407C007860396000223968786800F0A3F803464C
:10408C0018460837BD4680BD80B584B000AFF860D7
:10409C00B9607A60B86800F0B6F80246FB681A603E
:1040AC00FB687A685A60FB6818461037BD4680BDBD
:1040BC0080B584B000AFF860B9607A607A68B9688E
:1040CC00F86800F0AAF800BF1037BD4680BD80B478
:1040DC0083B000AF78607B6818460C37BD4680BC57
:1040EC00704780B483B000AF786039607B68184645
:1040FC000C37BD4680BC704780B483B000AF78608D
:10410C00074A7B681A607B6801225A607B6801222F
:10411C009A607B6818460C37BD4680BC704700BF60
:10412C007C74000880B582B000AF78603960396863
:10413C00786800F07FF87B6818460837BD4680BD6C
:10414C0090B585B000AFF860B9607A603B60786874
:10415C00FFF733FD04463868FFF739FD0346224666
:10416C00B968F86800F074F800BF1437BD4690BD0C
:10417C0080B582B000AF7860786800F0A1F8034693
:10418C0018460837BD4680BD80B584B000AFF860D6
:10419C00B9607A60F86800F09DF80346002B0CBFFC
:1041AC0001230023DBB2002B08D0FB68BA681A602D
:1041BC00FB6804337968184600F09AF800BF103792
:1041CC00BD4680BD80B584B000AFF860B9607A6040
:1041DC00F86800F0ADF80246BB6893428CBF01232F
:1041EC000023DBB2002B01D001F042FCBA6813466D
:1041FC005B0013441B01184601F002F803461846F5
:10420C001037BD4680BD80B483B000AF78607B684A
:10421C0018460C37BD4680BC704780B584B000AFE3
:10422C00F860B9607A60B86801F02EFA00BF1037F8
:10423C00BD4680BD80B582B000AF7860396039680A
:10424C007868FFF75BFE7B6818460837BD4680BD73
:10425C002DE9F04186B000AFF860B9607A603B6040
:10426C007868FFF7AAFC80463868FFF7B0FC024676
:10427C0007F1140311461846FEF71DFD07F114054E
:10428C00BC6821462420FFF7C5FA06462A4641465B
:10429C003046FEF75AF907F114031846FFF7ECFB0A
:1042AC000AE021463046FFF7C0FA07F1140318461E
:1042BC00FFF7E2FB00F0B4FF1837BD46BDE8F08114
:1042CC0080B483B000AF78607B6818460C37BD466D
:1042DC0080BC704780B582B000AF78607B680433D7
:1042EC00184600F031F8034618460837BD4680BD25
:1042FC0080B584B000AF786039603B681B68FB60A8
:10430C00FB68002B02D0F868FEF7C3F87B681B68CB
:10431C00002B04D07B681B681846FEF7C8F87B6836
:10432C00FA681A607B6818461037BD4680BD0000DD
:10433C0080B483B000AF7860024B18460C37BD4692
:10434C0080BC70475555550580B582B000AF78607C
:10435C007B681B68002B06D07B681B681846FEF731
:10436C00A4FF034600E0002318460837BD4680BD75
:10437C0080B582B000AF7860084A7B681A607B68B1
:10438C000C331846FFF7D4FD7B681846FFF7BEFBCD
:10439C007B6818460837BD4680BD00BF60740008B6
:1043AC0080B582B000AF78607868FFF7E1FF78687D
:1043BC0001F06AF97B6818460837BD4680BD90B598
:1043CC0083B000AF78607B680C33184600F05EF861
:1043DC0004467868FFF70CFE03461946204600F0A9
:1043EC0061F800BF0C37BD4690BD80B586B000AFFC
:1043FC0078607B680C33184600F048F8024607F1E9
:10440C00140311461846FFF72AFD07F1140107F1B2
:10441C000C037A681846FFF737FE7868FFF7A8FF99
:10442C0007F10C031846FFF746FD07F11403184675
:10443C00FFF722FD00BF1837BD4680BD80B582B0A6
:10444C0000AF78603960FFF7FBF902463B68934296
:10445C000CBF01230023DBB2002B04D07868FFF7DC
:10446C00C7FD03460CE00849386801F0F7F803462D
:10447C00002B04D07868FFF7BBFD034600E0002357
:10448C0018460837BD4680BD2C75000880B582B033
:10449C0000AF7860786800F012F8034618460837C9
:1044AC00BD4680BD80B582B000AF78603960396898
:1044BC00786800F020F800BF0837BD4680BD80B496
:1044CC0083B000AF78607B6818460C37BD4680BC63
:1044DC00704780B582B000AF78607B6808331846AF
:1044EC00FFF7CAFA7B68184600F011F87B6818468B
:1044FC000837BD4680BD80B582B000AF78603960AA
:10450C003868FFF7E6FF00BF0837BD4680BD80B5B1
:10451C0082B000AF78607B681846FEF796FA7B682D
:10452C0018460837BD4680BD80B588B000AF07F18E
:10453C00100300221A605A609A60DA602E4B9B6955
:10454C002D4A43F0100393612B4B9B6903F010032E
:10455C00FB60FB68284B9B69274A43F0200393615F
:10456C00254B9B6903F02003BB60BB68224B9B6906
:10457C00214A43F0040393611F4B9B6903F004032E
:10458C007B607B6800224FF400511C48FCF7ACF9AF
:10459C0000221C211A48FCF7A7F94FF400533B6189
:1045AC0001237B610023BB610223FB6107F1100334
:1045BC0019461248FCF73AF814233B6101237B613E
:1045CC000023BB610123FB6107F1100319460C4862
:1045DC00FCF72CF808233B6101237B610023BB61B2
:1045EC000223FB6107F1100319460548FCF71EF87E
:1045FC0000BF2037BD4680BD0010024000100140B6
:10460C000008014080B500AFFBF782FE00F010F807
:10461C00FFF78AFF00F058F800F0DAF9FFF7B6F868
:10462C000346002B00D0F9E700BF0023184680BDDD
:10463C0080B590B000AF07F118032822002118466E
:10464C0002F0BEF83B1D00221A605A609A60DA60D4
:10465C001A610123BB614FF48033FB6100233B6281
:10466C000123BB6202237B634FF48033BB634FF4A3
:10467C00E013FB6307F118031846FCF75FF90346D8
:10468C00002B01D000F019F80F237B600223BB60D4
:10469C000023FB604FF480633B6100237B613B1D77
:1046AC0002211846FCF7AEFB0346002B01D000F0AC
:1046BC0004F800BF4037BD4680BD80B400AF00BFDA
:1046CC00BD4680BC7047000080B500AF174B184A40
:1046DC001A60164B4FF482725A60144B00229A6087
:1046EC00124B0022DA60114B00221A610F4B002290
:1046FC005A610E4B4FF400729A610C4B1022DA6126
:10470C000A4B00221A62094B00225A62074B002204
:10471C009A62064B0A22DA620448FDF773F90346E3
:10472C00002B01D0FFF7C9FF00BF80BD9C0000200B
:10473C000030014080B588B000AF786007F11003FD
:10474C0000221A605A609A60DA607B681B681B4A08
:10475C0093422FD11A4B9B69194A43F480539361AE
:10476C00174B9B6903F48053FB60FB68144B9B69EC
:10477C00134A43F004039361114B9B6903F0040348
:10478C00BB60BB68A0233B6102237B610323FB61FD
:10479C0007F1100319460B48FBF748FF40233B6118
:1047AC0000237B610023BB6107F110031946054808
:1047BC00FBF73CFF00BF2037BD4680BD00300140F9
:1047CC00001002400008014080B485B000AF154BCA
:1047DC009B69144A43F001039361124B9B6903F0EC
:1047EC000103BB60BB680F4BDB690E4A43F080537F
:1047FC00D3610C4BDB6903F080537B607B680A4B05
:10480C005B68FB60FB6823F0E063FB60FB6843F0D4
:10481C000073FB60044AFB68536000BF1437BD464D
:10482C0080BC7047001002400000014080B400AF13
:10483C0000BFBD4680BC704780B400AFFEE780B4BB
:10484C0000AFFEE780B400AFFEE780B400AFFEE738
:10485C0080B400AF00BFBD4680BC704780B400AFD1
:10486C0000BFBD4680BC704780B400AF00BFBD46E2
:10487C0080BC704780B500AFFBF790FD00BF80BDDA
:10488C0080B500AF0248FDF74DF900BF80BD00BFF9
:10489C00F800002080B400AF01231846BD4680BC50
:1048AC00704780B582B000AF7860396001F018FFB6
:1048BC000246162313604FF0FF3318460837BD46E7
:1048CC0080BD80B582B000AF78604FF0FF31786862
:1048DC00FFF7E7FFFEE780B586B000AFF860B96080
:1048EC007A6000237B6109E0BB685A1CBA601B78B4
:1048FC001846AFF300807B6901337B617A697B6872
:10490C009A42F1DB7B6818461837BD4680BD000023
:10491C0080B584B000AF7860114B1B68002B02D1BE
:10492C000F4B104A1A600E4B1B68FB600C4B1A683D
:10493C007B6813446A46934207D901F0D1FE0246C4
:10494C000C2313604FF0FF3306E0054B1A687B68AD
:10495C001344034A1360FB6818461037BD4680BDEC
:10496C00F40000206801002080B400AF154B1B68D8
:10497C00144A43F001031360124B5A681149124B4D
:10498C0013404B600F4B1B680E4A23F0847323F4C7
:10499C00803313600B4B1B680A4A23F4802313608B
:1049AC00084B5B68074A23F4FE035360054B4FF436
:1049BC001F029A60054B4FF000629A6000BFBD4623
:1049CC0080BC7047001002400000FFF800ED00E0D2
:1049DC0080B586B000AF07F1080300221A605A6058
:1049EC009A60DA603B4600221A605A601D4B4FF009
:1049FC0080421A601B4B41F61F425A60194B002231
:104A0C009A60184B0922DA60164B00221A61154B7A
:104A1C0000229A611348FDF75AF80346002B01D087
:104A2C00FFF74BFE4FF48053BB6007F108031946A8
:104A3C000C48FDF77FF90346002B01D0FFF73DFE34
:104A4C0000233B6000237B603B4619460548FDF77D
:104A5C0084FB0346002B01D0FFF72FFE00BF183755
:104A6C00BD4680BDF800002080B584B000AF7860F2
:104A7C007B681B68B3F1804F13D10C4BDB690B4A7D
:104A8C0043F00103D361094BDB6903F00103FB60C5
:104A9C00FB68002200211C20FBF791FD1C20FBF77A
:104AAC00AAFD00BF1037BD4680BD00BF00100240FC
:104ABC00002103E00B4B5B58435004310A480B4B6D
:104ACC0042189A42F6D30A4A02E0002342F8043B09
:104ADC00084B9A42F9D3FFF747FF01F007FEFFF7A7
:104AEC0091FD7047B87F000800000020780000207E
:104AFC007800002064010020FEE7012810B503D9DE
:104B0C0051F8140C00F062F8BFF35B8FA1F128038D
:104B1C0053E8002F013A43E800200028F8D1BFF3F6
:104B2C005B8F5AB951F81C3C01F158040BB120466B
:104B3C0098472046BDE8104000F01CBD10BD000099
:104B4C0038B5002540E91E1240F8805C044600F0A0
:104B5C0053F844F8700C00F03DF8472304F8583C27
:104B6C004E2304F8573C552304F8563C432304F8D1
:104B7C00553C04F8543C2B2304F8533C04F8523CA9
:104B8C00044B44F86C0C04F8515C44F8503CA4F110
:104B9C00800038BD074B000808B504460D46164684
:104BAC0000F0B4F84368324601334360294620468E
:104BBC00FFF7C6FF0123044644F8283B2046FBF7C9
:104BCC001BFB204600F092FF00F00CF808B5804764
:104BDC0001F07FFD024B1868BFF35B8F704700BF7D
:104BEC001000002008B5FFF7F5FFFFF7EFFF08B541
:104BFC008047FFF7F7FF0000024B1868BFF35B8F8D
:104C0C00704700BF0C00002008B5FFF7F5FFFFF759
:104C1C00EEFF000008B51B220249022001F0FEFE47
:104C2C00FFF7E0FF947500087FB500241023CDE951
:104C3C000234036815469E6900946B468DF8044057
:104C4C001268B0479DF8043003F00603062B09BF29
:104C5C0001202046009B2B6004B070BD0098904250
:104C6C0014BF01200620704710B50446024B0360A8
:104C7C0000F0F1FC204610BDE875000810B50446A4
:104C8C00FFF7F2FF2046082100F059FF204610BD27
:104C9C002DE9F041069E9846DDE908349E42074610
:104CAC00154607D1079900F0D9FC18B165710020A1
:104CBC00BDE8F0814146384600F0D0FC0028F6D023
:104CCC00012326602571A371F1E738B515461C4602
:104CDC0000F0C4FC20B10823E36006232560237197
:104CEC0038BD2DE9F04105460C4616461F4600F02E
:104CFC00B5FC48B9032F07D823683246294620460D
:104D0C00BDE8F0415B691847BDE8F0810048704789
:104D1C003801002000231A4630B510F8015B05F06D
:104D2C007F04944023432C0602F10702F5D40B6058
:104D3C0030BD00231A4630B510F8014B04F07F0546
:104D4C0095402B43250602F10702F5D41F2A06D8FD
:104D5C00640642BF4FF0FF3404FA02F213430B60B7
:104D6C0030BD5028F7B505460E4614461F4607D1F0
:104D7C00D01C20F0030050F8043B3B6003B0F0BDA6
:104D8C0000F00F030C2B2ED8DFE803F025071D25B0
:104D9C00292D2D2D2D182125290001A92046FFF79D
:104DAC00B9FF019B002BE8D005F07002102A08BF58
:104DBC0026462A06334448BF1B68DEE701A9204675
:104DCC00FFF7B7FFEDE7204630F8023BEAE7204655
:104DDC0030F9023BE6E7204650F8043BE2E7204678
:104DEC0050F8083BDEE701F074FC08B50346FF2BD6
:104DFC0008461BD003F07003202B0FD004D8ABB1A6
:104E0C00102B13D001F065FC402B0BD0502B0DD088
:104E1C00302BF7D1BDE8084001F055BCBDE8084087
:104E2C0001F054BCBDE8084001F03FBC002008BDB7
:104E3C0070B50C460146204615461E46FFF7D5FFB9
:104E4C0033462A4601462046BDE87040FFF789BF2D
:104E5C0073B50C461546064608B101F026FC2246F1
:104E6C00286012F8011BFF291DD02B1D3046FFF7BF
:104E7C00DFFF0246104610F8013BFF2B2B7514D0B8
:104E8C00102301A92B75FFF745FF019B0344EB6031
:104E9C0010F8013B01A96B75FFF73CFF019B034424
:104EAC002B6102B070BD6860E4E70023EFE71FB52B
:104EBC0003AB009300230A46194600F0DEFF03986B
:104ECC0005B05DF804FB000000232DE9F04F91B014
:104EDC00059300F00303012B06460C4617460FD032
:104EEC001BB1022B03D001F0F4FB010739D5394675
:104EFC00204601F0C5FB90B3092011B0BDE8F08F3E
:104F0C00020706D40D6A38460D21FFF7D0FF854203
:104F1C0029D0022306F008061E4300230DF1280AAF
:104F2C00CDF800A00C22194638460A9400F0C6FFB2
:104F3C00062E1AD1D4E90A59D4F83080B8F1000FF2
:104F4C000CBF4FF0010B4FF0030B16F0080600F0EE
:104F5C000481BBF1010F40F0FC80FFF743FE0820F9
:104F6C00CBE70123D6E70623D4E7384601F0A2FBB2
:104F7C0081460028BBD0524601463846FFF768FFF1
:104F8C00394680469DF83C00FFF72FFF0F210C900F
:104F9C003846FFF78CFF20F00100451E0E9B434561
:104FAC0040F2BF80424606AB9DF83D100020FFF753
:104FBC003FFF07AB02469DF83D100020FFF738FF7E
:104FCC0008AB02469DF83D100020FFF731FF09A900
:104FDC00FFF7A0FE0A9B069A80461344AB4202D907
:104FEC00DDF83880DAE7079A1344AB42D6D9DDF8FE
:104FFC002080B8F1000F01D00B9B9844099D15B18E
:10500C000E98013D0544B8F1000F3FF470AF002D30
:10501C0000F0F38016F00803029333D0472323707B
:10502C004E2363705523A3704323E37046232371EF
:10503C004F2363715223A3710023E3714FF0000BD4
:10504C0007A92846FFF775FE08A90390FFF771FE24
:10505C00079A002A62D039DD9DF83C00FF2831D038
:10506C0000F00703042B3FF63EAF01A151F823F0EB
:10507C00D5500008F34E0008A3500008D550000886
:10508C00CD500008E379012B0CBF54F8203C04F1FF
:10509C0058030593D2E702210D9D09AB01FB125277
:1050AC000C99FFF75EFE099931B15CB305AB002298
:1050BC00204600F0D9F828B3079D4FF0030B34E0DD
:1050CC000821E9E70021E7E70421E5E76FF0030396
:1050DC0002FB03330D9AD518DCB10299C9B9059BB3
:1050EC00043D099355F8041F41B109AB0022294432
:1050FC00204600F0B9F80028F4D0012181F001011C
:10510C000029D9D1089D002D73D0039B2B441D463B
:10511C0096E7D158B1FA81F14909F1E74FF0010B4B
:10512C00F0E700254FF0010BA846F3077FF50DAF14
:10513C00BBF1020F3FF4DBAE0D213846059EFFF7A5
:10514C00B6FEC4E90A59C4E90806C4F83080062042
:10515C00D3E6002D24DAFFF757FDBBF1010F02D186
:10516C00204600F048FA002D1ADA524649463846D5
:10517C00FFF76EFE39469DF83C00FFF736FE6FF0E8
:10518C00030305FB03320D9B0C90134453F82620AC
:10519C000AB10136FAE70422C4E90A60C4E90C2317
:1051AC00002309AE1A46194600963846099400F0B9
:1051BC0085FE00230122194600963846099500F019
:1051CC007DFE0F213846FFF772FE002300F0010030
:1051DC0040EA0800099000960F221946384600F064
:1051EC006DFEBBF1020F02D1204600F09BF80720A8
:1051FC0083E6BBF1000F3FF47AAE4FF0020B94E75D
:10520C0010B5041E08BF0124204601F093FA30B9F2
:10521C0000F03CFA08B901F05CFA8047F4E710BDE5
:10522C001EB400F09CF81EBCFAF7F8FF0378472B6D
:10523C0017D143784E2B14D18378552B11D1C378C9
:10524C00432B0ED10379432B0BD143792B2B08D154
:10525C0083792B2B05D1C07901288CBF002001202C
:10526C0070470020704700002DE9F3411E4603787B
:10527C000D46472B0246C17913D143784E2B10D1E2
:10528C008378552B0DD1C378432B0AD10379462B48
:10529C0007D143794F2B04D18379522B01D10029AB
:1052AC0030D01046FFF7C2FF002380F00100C0B2DF
:1052BC00002401944BBB50BB01290ABF52F8203C7F
:1052CC00A2F12003783B01290CBF52F8202C583254
:1052DC001C680192236820469B689847C8B1022736
:1052EC00019B1B6801932B6801AAD3F810802146FF
:1052FC0001232846C04770B1019B3360384602B089
:10530C00BDE8F08101230846D2E7044CE2E7044CE7
:10531C00E0E70127E7E70746F0E700BF7C760008E7
:10532C008476000810B50446FFF7F0FC02462046D0
:10533C00A4F12001FFF77AFF60B154F8043C01336B
:10534C00012B44F8043C03D1936844F8083C916069
:10535C00012010BD9368002BF9D0FFF743FC10B56A
:10536C00FFF7D4FC826801460AB9FFF73BFC02F157
:10537C0020042046FFF75AFF40B1D369013BD361AB
:10538C0013B9906988609361204610BD8860FBE773
:10539C0010B50446024B0360FFF766FC204610BDB7
:1053AC004876000810B50446FFF7F2FF20460C21A2
:1053BC0000F0C5FB204610BD2DE9F041069E0746C6
:1053CC009642884615461C460AD0B8682A46036899
:1053DC0006961E6A41462346B446BDE8F041604736
:1053EC00194600F03BF90028EFD00620BDE8F0810B
:1053FC002DE9F14F0E46DDE90A4ADDE90C85194627
:10540C0083461746994600F029F990B1002E2C607E
:10541C002F7109DB3444A0450CBF06240124AC7168
:10542C00002001B0BDE8F08F0236F9D10123AB7139
:10543C00F6E7444506D15146584600F00FF908B13D
:10544C006F71EDE7DBF808003A460368CDE90C858F
:10545C00CDE90A4ADC6931464B46A44601B0BDE8A9
:10546C00F04F60472DE9F04104460D4616461F46A5
:10547C00FFF72BFC48B9A0683246036829469C69A3
:10548C003B46A446BDE8F0416047BDE8F081000012
:10549C001A4A70B55368A0F10804164623B150F8A7
:1054AC00081C6518AB4203D940F8043C746070BD0D
:1054BC0006D1D3E90035194440E902155460F6E7EA
:1054CC0004325E6826B1B54202D21A1D3346F8E7A3
:1054DC00B54201BF2E686D6889195D6013681D683F
:1054EC005E19B44217BF5B68491940F8043C136855
:1054FC0016BF40F8081C19605C60D8E74401002016
:10550C0000F10803082B38BF082330B50D4A0733C8
:10551C0052F8040F23F0070368B1D0E900148B4252
:10552C000AD9021D2046F7E7C5186C60C1501068F7
:10553C0003601560083030BDC91A0729F4D814600F
:10554C00F8E700BF4401002010B500F180042046AC
:10555C0001F0F0F8034630B92046FFF7D1FF0346BF
:10556C0008B9FFF73FFB80220021184601F028F90B
:10557C00803010BD064A80389368984205D9D268AD
:10558C001344984201D2FFF783BF01F0DBB800BF90
:10559C004401002038B54FF41E65074C2846E560E1
:1055AC0001F0C8F8A06010B9E060606038BD00235D
:1055BC00606005604360F9E7440100200378472BE5
:1055CC0017D143784E2B14D18378552B11D1C37836
:1055DC00432B0ED10379432B0BD143792B2B08D1C1
:1055EC0083792B2B05D1C07901288CBF0020012099
:1055FC0070470020704710B5044648B100F076FAA9
:10560C002046FFF7DBFF18B154F8140CFFF7DEFA55
:10561C00FFF7E8FA38B50246FFF7D0FF40B1002596
:10562C0052F8184C104600F061FA25B1FFF7ECFA6D
:10563C0004460125F6E72046FFF7D9FA704700002B
:10564C00004870476C76000810B50446042100F041
:10565C0076FA204610BD704700207047814208B58D
:10566C000ED0406803782A2B0CD049680B782A2B73
:10567C0008BF0131FAF71AFEB0FA80F0400908BDF4
:10568C000120FCE70020FAE701F05CB8024B186837
:10569C00BFF35B8F704700BF540100207047704709
:1056AC000AB101F065B8704708B50B68002B02DA37
:1056BC00094800F0E3F9934208D95200934205D20D
:1056CC00002AB6BF6FF000430A600B600868BDE8A3
:1056DC0008400130FFF794BD54770008034653F897
:1056EC00080B984201D0FFF7CFBF704708B501F106
:1056FC00004140680139091A914202D2184600F063
:10570C00BDF908BD03688B4206D840681844814235
:10571C0094BF00200120704701207047012A10B56A
:10572C0002D10A78027010BDFFF7BAFFFBE7012A1D
:10573C0030B403D10B78037030BC7047002AFBD017
:10574C0030BC01F023B808B5521AFFF7E7FF08BDCB
:10575C0008B5521AFFF7E2FF08BD2DE9F3470A9E80
:10576C00994643688F18B21A1A44A3EB07080346EC
:10577C00019253F8082B0D469A4214BF82680F22EF
:10578C0001A90446FFF790FF82461DB12A46216805
:10579C00FFF7C4FFB9F1000F06D02EB132464946CF
:1057AC000AEB0500FFF7BAFFB8F1000F06D021682D
:1057BC00A819424639445044FFF7B0FF2046FFF782
:1057CC008DFF019BC4F800A0A36002B0BDE8F08778
:1057DC0000F108020260002242600272704770B54C
:1057EC0004460E460830206056F8083B0D469E4293
:1057FC000BD110223146FFF753FF6B6820466360D4
:10580C0000232E606B602B7270BD23608B68A360CD
:10581C00F3E710B50446FFF761FF204610BD70B5E5
:10582C000C4651F8083B0546994200680ED1626857
:10583C000AB1FFF773FF002163682A686B60D154CB
:10584C000023226863601370284670BD05F10806BA
:10585C00B04208BF00202B60636818BFAA686B6059
:10586C00A368AB6010B12060A260E9E72160E7E7B4
:10587C002DE9F74F144680460C9D89462A461F4653
:10588C002146394BFFF732FF424652F8086BD8F8E5
:10589C000430964208BF0F22A5EB040B18BFD8F8B2
:1058AC00082003EB0B0A524551D34E443946A14410
:1058BC004046A3EB0909FFF725FF80B1B9F1000FB2
:1058CC0006D0AC4204D04A4631197019FFF72FFFAD
:1058DC0015B32A4639463046FFF720FF1CE035B198
:1058EC00AC423CD32A4639463046FFF720FFB9F18B
:1058FC00000F11D0AC420FD04A4631197019FFF786
:10590C0016FFAC4208D234447B199C420FD32A4672
:10591C0039463046FFF70BFF00224046D8F80030DE
:10592C00C8F804A003F80A2003B0BDE8F08FBC420D
:10593C0003D82A4607EB0B01CDE7E41B2246394678
:10594C003046FFF7F4FE2A1B71193019C4E7009595
:10595C003B46224649464046FFF7FFFEDCE7B9F1DD
:10596C00000FD0D0C8E700BF1177000837B5044648
:10597C0008460D46FAF7A4FC2B46009062680021FD
:10598C002046FFF775FF03B030BD08B5FFF7EEFFFB
:10599C0008BD00687047000073B5044616460D46F6
:1059AC0019B912B10D4800F066F8731B0F2B019357
:1059BC0007D9002201A92046FFF776FE019B206043
:1059CC00A360324629462068FFF7BDFE0021019BEB
:1059DC0022686360D15402B070BD00BF2A77000802
:1059EC0010B5044600F108020260D1E900124FF034
:1059FC0000030A44FFF7D0FF204610BD73B50446E0
:105A0C0016460D4619B912B10D4800F034F8731B47
:105A1C000F2B019307D9002201A92046FFF744FE62
:105A2C00019B2060A360324629462068FFF790FE58
:105A3C000021019B22686360D15402B070BD00BF8D
:105A4C002A77000838B500F10803044603600D46B8
:105A5C0059B10846FAF734FC2A1820464FF00003D7
:105A6C002946FFF7CBFF204638BD4FF0FF32F4E755
:105A7C0008B500F02EFE08B500F02BFE08B500F0BE
:105A8C0028FE0000004870476C77000810B50446EB
:105A9C00024B0360FFF7D2FD204610BDA47700082F
:105AAC0010B50446FFF7F2FF2046FFF7EDFD204648
:105ABC0010BD0378472B17D143784E2B14D1837824
:105ACC00552B11D1C378432B0ED10379432B0BD11A
