:020000040800F2
:10000000005000203D1E0008B51C0008B91C000867
:10001000BD1C0008C11C0008C51C00080000000031
:10002000000000000000000000000000C91C0008E3
:10003000CD1C000800000000D11C0008D51C0008E1
:10004000851E0008851E0008851E0008851E000804
:10005000851E0008851E0008851E0008851E0008F4
:10006000851E0008851E0008851E0008851E0008E4
:10007000851E0008851E0008851E0008851E0008D4
:10008000851E0008851E0008851E0008851E0008C4
:10009000851E0008851E0008851E0008851E0008B4
:1000A000851E0008851E0008851E0008851E0008A4
:1000B000D91C0008851E0008851E0008851E000842
:1000C000851E0008851E0008851E0008851E000884
:1000D000851E0008851E0008851E0008851E000874
:1000E000851E0008851E0008851E0008000000000F
:1000F0000000000000000000000000000000000000
:0C01000000000000000000005FF808F1A3
:10010C0000F1340191E838009C46A6464CF8045D99
:10011C0090E8FF0FE54600BD90EC210B704700BF47
:10012C0080EC210B704700BF90EC200B704700BF98
:10013C0080EC200B704700BFD0EC200B704700BF49
:10014C00C0EC200B704700BFF0EC0201F0EC021188
:10015C00F0EC0221F0EC0231F0EC0241F0EC025137
:10016C00F0EC0261F0EC0271F0EC0281F0EC029127
:10017C00F0EC02A1F0EC02B1F0EC02C1F0EC02D117
:10018C00F0EC02E1F0EC02F1704700BFE0EC020190
:10019C00E0EC0211E0EC0221E0EC0231E0EC024177
:1001AC00E0EC0251E0EC0261E0EC0271E0EC028167
:1001BC00E0EC0291E0EC02A1E0EC02B1E0EC02C157
:1001CC00E0EC02D1E0EC02E1E0EC02F1704700BFA0
:1001DC00B0FC0181B0FC0191B0FC01A1B0FC01B1FB
:1001EC00704700BFA0FC0181A0FC0191A0FC01A103
:1001FC00A0FC01B1704700BFEC4600B52DE90050E2
:10020C002DE9FF1F4FF000032DE90C0001A902F0AE
:10021C00BFFEDDF840E012B0704700BFEC4600B501
:10022C002DE900502DE9FF1F4FF000032DE90C00C4
:10023C0001A902F0E4FEDDF840E012B0704700BF07
:10024C00EC4600B52DE900502DE9FF1F4FF00003DF
:10025C002DE90C0001A902F0F2FEDDF840E012B02D
:10026C00704700BFEC4600B52DE900502DE9FF1F8B
:10027C004FF000032DE90C0001AB02F0B6FEDDF8E7
:10028C0040E012B0704700BFEC4600B52DE90050BD
:10029C002DE9FF1F4FF000032DE90C0001AA02F01D
:1002AC001AFFDDF840E012B0704700BF10F8012BC8
:1002BC0011F8013B012A28BF9A42F7D0D01A704797
:1002CC00034613F8012B002AFBD1181A013870478A
:1002DC0010B5054C227832B9044B13B10448AFF376
:1002EC0000800123237010BD780000200000000066
:1002FC00F044000808B5034B1BB103490348AFF3A6
:10030C00008008BD000000007C000020F0440008C4
:10031C0038B54FF47A730D490D4A09781268B3FB5E
:10032C00F1F30546B2FBF3F000F0A0F808B90F2D7D
:10033C0001D9012038BD0446024629464FF0FF3052
:10034C0000F052F8034B20461D6038BD0000002021
:10035C000800002004000020074A08B51368032099
:10036C0043F01003136000F02DF80020FFF7D0FFCE
:10037C0001F078FC002008BD00200240034A044B29
:10038C0011681B780B441360704700BF9400002069
:10039C0000000020014B1868704700BF940000203B
:1003AC0038B50446FFF7F6FF631C054602D0044B34
:1003BC001B781C44FFF7EEFF401BA042FAD338BD5C
:1003CC00000000204FF6FF01064A0002D36800F43B
:1003DC00E0600B40184340F0BF6040F40030D06048
:1003EC00704700BF00ED00E0184B30B4DC68C4F37C
:1003FC000224C4F10705042D04F1040328BF0425CD
:10040C00062B18D94FF0FF33033CA34022EA03021A
:10041C004FF0FF33AB4021EA0303A34013431B010E
:10042C000028DBB20ADB00F1604000F5614080F887
:10043C00003330BC704700221446E9E7044A00F050
:10044C000F000244137630BC704700BF00ED00E093
:10045C00FCEC00E0012300F01F01034A40098B4033
:10046C0042F82030704700BF00E100E00138B0F1E5
:10047C00807F0DD230B4F02500220721054B064CAD
:10048C00586084F82350104630BC9A60196070474D
:10049C000120704710E000E000ED00E02DE9F04F86
:1004AC004FF0000883B043466A4EDFF8BCE1DFF83A
:1004BC00BCC102E00133102B7DD001220C689A40A4
:1004CC0002EA0405AA42F5D14C68122C00F0A9806E
:1004DC0000F28180022C00F0A0806FD9032C00F078
:1004EC009980112C02D1CA6802F10408FF2D6CD836
:1004FC00824602689C004FF00F0909FA04FB22EABD
:10050C000B0208FA04F42243CAF80020D1F804A024
:10051C001AF0805FCED0504F23F00304BA6904F177
:10052C00804442F00102BA61BA6904F5803402F0E9
:10053C000102019203F0030B019A4FEA8B0BA268A4
:10054C00A7F5843709FA0BF9B84222EA090211D04F
:10055C0007F58067B84268D0404FB84273D0404F1F
:10056C00B8420CBF4FF003094FF0040909FA0BFB1A
:10057C0042EA0B02A26032681AF4803F14BF2A438D
:10058C00AA43326072681AF4003F14BF2A43AA438C
:10059C007260B2681AF4801F14BF2A43AA43B26077
:1005AC00F4681AF4001F03F1010314BF2C43AC438D
:1005BC00102BF46081D103B0BDE8F08FC4B1012CD5
:1005CC0094D1FF2DD1F80C8092D99C004268203C2C
:1005DC0000F1040A8FE774450AD00ED9644507D0A0
:1005EC00204FBC4204D0DFF888904C457FF47EAF9E
:1005FC008C680CBB4FF0040878E7DFF878904C451A
:10060C00F6D009F580394C457FF470AF8C68002C1E
:10061C00F0D011E04FF0000868E7CA6802F1080852
:10062C0064E7CA6802F10C0860E74FF0010909FAA7
:10063C000BFB42EA0B029DE7012C0CBF02614261ED
:10064C004FF0080852E74FF0020909FA0BFB42EA97
:10065C000B028FE700040140001002400010014023
:10066C000014014000003210000021100000311075
:10067C00000022100000111002B90904016170473A
:10068C00C3685940C16070472DE9F041036882B0DE
:10069C00DD07044630D5AB494A6802F00C02042A47
:1006AC0000F0DA804A6802F00C02082A00F0D080D0
:1006BC006368B3F5803F00F00F81002B00F02781B9
:1006CC00B3F5A02F00F0B5819E4B1A6822F480324E
:1006DC001A601A6822F480221A60FFF75BFE994DAB
:1006EC00064605E0FFF756FE801B642800F20B81DE
:1006FC002B689A03F6D523689F0728D5914A516831
:10070C0011F00C0F00F0B680516801F00C010829B3
:10071C0000F0AC802369002B00F0418101228A4B50
:10072C00884D1A60FFF736FE064605E0FFF732FEED
:10073C00801B022800F2E7802B689807F6D52B68FF
:10074C00626923F0F80343EAC2032B6023681A079B
:10075C0022D5A369002B00F0988001227B4B794DA8
:10076C001A60FFF717FE064605E0FFF713FE801B25
:10077C00022800F2C8806B6A9B07F6D5744B754A49
:10078C001B68A2FB03235B0A019300BF019B5A1E4B
:10079C000192002BF9D123685D0739D5694BDA69D1
:1007AC00D00040F1828000256B4B1A68D10540F1D6
:1007BC009980E368012B0FD0002B00F0D180052B22
:1007CC00604B1A6A00F0FC8022F001021A621A6A6D
:1007DC0022F004021A6204E05A4A136A43F001033D
:1007EC001362FFF7D7FD574E804641F2883706E07B
:1007FC00FFF7D0FDA0EB0800B84200F28480336A0A
:10080C009B07F5D525B14F4AD36923F08053D361AB
:10081C00E369CBB14B4D6A6802F00C02082A30D068
:10082C00022B4FF000024D4B00F0D2801A60FFF704
:10083C00B1FD2C46054604E0FFF7ACFD401B022839
:10084C0061D823689B01F7D4002002B0BDE8F08189
:10085C004A68D0037FF52CAF3A4A126891037FF5B2
:10086C004BAF6268002A7FF447AF0AE05268D603A8
:10087C003FF550AF334A1268950721D52269012AFA
:10088C001ED0012002B0BDE8F081304A2D4D13601E
:10089C00FFF780FD064604E0FFF77CFD801B022875
:1008AC0031D86B6A9F07F7D475E7DA69012542F0F6
:1008BC008052DA61DB6903F080530093009B73E78D
:1008CC00204960690A6822F0F80242EAC0020A6014
:1008DC001A077FF561AF3CE71A4A136843F480337B
:1008EC001360FAE61A681E4642F480721A60FFF72B
:1008FC0051FD07463368DA053FF55BAFFFF74AFD5C
:10090C00C01B6428F6D9032002B0BDE8F08103F1C6
:10091C00804303F504331A681D4622F480321A60B2
:10092C001A6822F480221A60FFF734FD064604E0B0
:10093C00FFF730FD801B6428E5D82B689B03F7D4A8
:10094C00D9E600BF0010024000004242800442423F
:10095C0008000020D34D621000700040600042423D
:10096C0003F1804303F504331A6A1E4622F0010298
:10097C001A621A6A41F2883822F004021A62FFF7EE
:10098C0009FD074604E0FFF705FDC01B4045BAD83A
:10099C00336A9807F7D4002D3FF43AAF33E72B4A6C
:1009AC002B4D1360FFF7F6FC064604E0FFF7F2FC54
:1009BC00801B0228A7D82B689907F7D42368C6E6B2
:1009CC0042F004021A621A6A42F001021A6208E743
:1009DC001A60FFF7DFFC064604E0FFF7DBFC801B28
:1009EC00022890D82B689901F7D4226AB2F5803F7F
:1009FC0005D16B68A16823F400330B436B600125B0
:100A0C00134B606A5968024321F4741111480A436C
:100A1C005A6005601C46FFF7BDFC054605E0FFF774
:100A2C00B9FC401B02283FF66EAF23689A01F6D53D
:100A3C000AE703F18043A3F53C331A6842F48022A1
:100A4C001A601A6842F480321A6046E6000042428C
:100A5C0000100240600042426B4A136803F0070327
:100A6C008B420BD2136823F007030B4313601368FC
:100A7C0003F007038B4201D0012070472DE9F041B0
:100A8C00036886B09D0714D55C0704D55F4C62687B
:100A9C0042F4E06262601A0704D55C4C626842F46E
:100AAC0060526260594C8568626822F0F0022A43F9
:100ABC006260DB0705460C4624D54268534B012A7D
:100ACC001B6800F09480022A00F08D80980729D5CD
:100ADC004E4E41F28838736823F00303134373605E
:100AEC00FFF758FC6B680746012B6BD0022B05D126
:100AFC0073E0FFF74FFCC01B40457CD8736813F0C4
:100B0C000C0FF6D1404A136803F00703A3420DD92A
:100B1C00136823F0070323431360136803F00703E0
:100B2C00A34203D0012006B0BDE8F0812B68590721
:100B3C0006D53649E8684A6822F4E06202434A6006
:100B4C001A0707D5314A2969536823F4605343EADD
:100B5C00C103536040F201222D4B06ACADF80420CA
:100B6C000FCB04E90F0029494A6802F00C03082B4B
:100B7C0010D0284B254A284852682849C2F3031242
:100B8C00825C0020D3400B60FFF7C2FB002006B054
:100B9C00BDE8F081C2F38343234413F8100CD30354
:100BAC002DD54A681B4BC2F3404203FB00F3224491
:100BBC0012F8142CB3FBF2F3DCE7FFF7EBFBC01BD2
:100BCC00404518D8736803F00C03042BF5D199E752
:100BDC00FFF7E0FBC01B40450DD8736803F00C0316
:100BEC00082BF5D18EE79E013FF572AF9AE79F0374
:100BFC003FF56EAF96E7032006B0BDE8F081084BD9
:100C0C0003FB00F3B6E700BF0020024000100240D7
:100C1C000845000800127A00CC46000808000020A5
:100C2C0000093D00F8B507460D4614461E46731CD8
:100C3C00386809D1836835EA03030CBF012300230C
:100C4C00A342F7D10020F8BD836835EA03030CBF3B
:100C5C00012300239C42F5D036B1FFF79BFB069B8A
:100C6C00C01AB042E3D3386843687A6823F0E003D3
:100C7C00B2F5827F436015D0BB6AB3F5005F07D035
:100C8C000122002387F8512087F850300320F8BD4B
:100C9C004DF6FF72036813400360036843F400537E
:100CAC000360EDE7BB68B3F5004F02D0B3F5806F7E
:100CBC00E2D1036823F040030360DDE72DE9F04344
:100CCC00044690F8500085B0012858D01F460123E7
:100CDC0084F850300D469146FFF75CFB94F8516058
:100CEC008046F6B2012E0AD002260122002330469D
:100CFC0084F8512084F8503005B0BDE8F083002D05
:100D0C00F3D0B9F1000FF0D00322002384F8512066
:100D1C00A2686365B2F5004FA363A387C4E91033DF
:100D2C00A4F836902563E387A4F83490236848D060
:100D3C001A68500603D41A6842F040021A60E1683F
:100D4C006268B1F5006F1FD0002A3FD0E28E92B2DC
:100D5C00012A3BD0781C7CD0002F00F0A580E38EBC
:100D6C009BB2002B53D023689A68910736D4FFF7B7
:100D7C0011FBA0EB08008742F1D80326B5E7022649
:100D8C00304605B0BDE8F083002A7AD135F8022B45
:100D9C00DA60E28E013A92B2E2867A1C26D0002FFB
:100DAC0000F09780E38E9BB2002B30D023689A68BA
:100DBC00900771D4FFF7EEFAA0EB08008742F1D848
:100DCC00DBE71A6842F480421A60B1E715F8012B90
:100DDC001A73E38E013B9BB2E386BBE715F8012B3C
:100DEC001A73E38E013B9BB2E386B8E7E28E92B2B4
:100DFC006AB19A689107F9D535F8022BDA60E28E60
:100E0C00013A92B2E286E28E92B2002AF1D1CDF88A
:100E1C0000803B46012202212046FFF703FF0028F9
:100E2C00ABD10246CDF800803B4680212046FFF72F
:100E3C00F9FE00282AD1A36833B922680393D3683A
:100E4C00039393680393039B666D003618BF0126CA
:100E5C004BE7E38E9BB25BB9D9E715F8012B1A73FC
:100E6C00E38E013B9BB2E386E38E9BB2002BCED08C
:100E7C0023689A689207F0D4E28E92B2002AF8D1D5
:100E8C00C5E7E28E92B2012A87D17FE72022636DFB
:100E9C0013436365626528E735F8022BDA60E38E4D
:100EAC00013B9BB2E3867DE7E38E9BB25BB9AEE779
:100EBC0015F8012B1A73E38E013B9BB2E386E38E8C
:100ECC009BB2002BA3D023689A6892077FF555AF8D
:100EDC00EEE7E28E92B25AB999E735F8022BDA6056
:100EEC00E28E013A92B2E286E28E92B2002A8ED063
:100EFC009A6891077FF541AFEFE700BF002839D022
:100F0C00F8B5002390F851200446836272B31A4658
:100F1C00D4E90136022700210125E0683343266914
:100F2C00034360693343E66903433343206AA6698C
:100F3C0084F851700343276806F40070034313438D
:100F4C003A68606A22F04002360C3A6006F00406F9
:100F5C003B60E36A06437E603B61FB69084623F411
:100F6C000063FB61616584F85150F8BD00F040FEF0
:100F7C00A26ACDE701207047002847D090F83D3099
:100F8C0070B503F0FF02044653B302232268204ECF
:100F9C0084F83D30B24213686068E168A56924D0DA
:100FAC00B2F1804F13D0A6F59436B2420FD006F5AD
:100FBC008066B2420BD023F080032B431360D162C6
:100FCC00906201230020536184F83D3070BDA66807
:100FDC0023F070033343266923F440733343EAE769
:100FEC0080F83C2000F006FFCFE7A66823F07003E2
:100FFC003343266923F44073334323F080032B439C
:10100C001360D162906263691363DAE70120704761
:10101C00002C014090F83C30012B00F08C80022316
:10102C0070B40125026880F83D3094680B6824F494
:10103C007F4424F07704402B80F83C5094607CD0A3
:10104C003ED9702B00F0918024D8502B5BD0602BB4
:10105C0017D1146A4D6824F01004CE68146291699B
:10106C00136A21F4704123F0A00343EA051341EA0B
:10107C00063191611362936823F0700343F06703A8
:10108C009360002370BC012280F83C3080F83D2036
:10109C0018467047B3F5805F30D0B3F5005FF0D1E0
:1010AC00D1E90153CC6891682B4343EA042321F422
:1010BC007F410B439360936843F480439360E0E774
:1010CC00102B62D00AD9202B11D0302BD9D1936898
:1010DC0023F0700343F037039360D2E7002BD0D199
:1010EC00936823F0700343F007039360C9E7936898
:1010FC0023F0700343F027039360C2E7936823F057
:10110C0007039360BDE7156A166A4C6826F0010662
:10111C00C9681662936925F00A0523F0F00343EAC7
:10112C0001132C4393611462936823F0700343F012
:10113C0057039360A5E702207047156A166A4C683E
:10114C0026F00106C9681662936925F00A0523F09A
:10115C00F00343EA01132C4393611462936823F068
:10116C00700343F0470393608BE7D1E90153CC68DC
:10117C0091682B4343EA042321F47F410B43936092
:10118C00936843F0770393607BE7936823F07003D5
:10119C0043F01703936074E7704700BF704700BFBC
:1011AC00704700BF704700BF704700BF036810B5A1
:1011BC001A690446910702D5DA6892075FD41A6956
:1011CC00500702D5DA68510746D41A69120702D5BE
:1011DC00DA6810072ED41A69D20602D5DA68D0065E
:1011EC0018D41A69D10702D5DA68D2075DD41A6906
:1011FC00100602D5DA6811065FD41A69520602D5B8
:10120C00DA68500661D41A69910602D5DA6892063A
:10121C0043D410BD6FF0100108221961DB69204620
:10122C0013F4407F227764D0FFF7BAFF00222368C3
:10123C002277D6E76FF0080104221961DB6920469A
:10124C009907227752D1FFF7A9FF2046FFF7AAFF93
:10125C00002223682277BEE76FF004010222196195
:10126C009B69204613F4407F22773CD1FFF796FF11
:10127C002046FFF797FF002223682277A5E76FF03F
:10128C000201012219619B6902779B0725D0FFF7A8
:10129C0087FF00222368227791E76FF02002204617
:1012AC00BDE810401A6100F051B86FF00102204601
:1012BC001A61FFF771FF236899E76FF080022046EF
:1012CC001A6100F045F8236897E76FF0400220465A
:1012DC001A61FFF769FF236895E7FFF75FFF204668
:1012EC00FFF760FFD5E7FFF75BFFC4E7FFF758FF99
:1012FC00AEE7FFF753FF2046FFF754FF96E700BF1A
:10130C0090F83C30012B1ED002460220F0B4002590
:10131C000126136882F83D005C680F6824F07004A5
:10132C005C6058684C6838435860986820F08000BE
:10133C009860996828462143996082F83D6082F84C
:10134C003C50F0BC70470220704700BF704700BF94
:10135C00704700BF10B50446044B0189036001229D
:10136C004068FFF789F9204610BD00BF40450008D2
:10137C0010B50446054B0189036001224068FFF754
:10138C007BF9204601F02AFB204610BD40450008A1
:10139C00024638B50B460446D1E90001054D42F82A
:1013AC00045B82E80300002218689988FFF764F94F
:1013BC00204638BD404500081123F0B500F1080265
:1013CC0083B001A9026000220446019301F014FBD2
:1013DC000646019F094D26600FCDA7604FF0000C0B
:1013EC00306020462D78F36035747160B260019BDB
:1013FC002268636002F803C003B0F0BD70450008BA
:10140C0000220A23F0B500F1080583B000F1200694
:10141C0000F1380705608661076342600272C261A1
:10142C0080F82020426380F8382011460093154B39
:10143C00044601F091FB0B220092134B626B0021CE
:10144C0004F1300001F088FB0D2200920F4BE26991
:10145C00002104F1180001F07FFB204603B0F0BD21
:10146C00206B874201D001F0B9FAA069864201D005
:10147C0001F0B4FA2068854201D001F0AFFA01F016
:10148C0085F800BF48450008544500086045000831
:10149C0001207047704700BF03685B68184700BFA6
:1014AC0008B5042001F006FA024B034A0360034915
:1014BC0000F032FD80480008712C000858480008E4
:1014CC009446F0B4064600270D46DCF800400FCDDC
:1014DC00C6E9017406F10C0437600FC42B68304662
:1014EC00CCF800702360F0BC704700BF2DE9F041D0
:1014FC0000248CB0064606AD04A890461F46059401
:10150C008DF81840049501F0C6FA7468ADF828807F
:10151C000B97002C45D06368002B44D0A26836682A
:10152C00511C01336360A16004AA02A901A8CDE992
:10153C00026400F04FF9039850B18368013B83605B
:10154C0033B903682949DA688A4225D15B68984720
:10155C006368013B63604BB10498A84201D001F071
:10156C003DFA4FF000000CB0BDE8F0812368204A32
:10157C009B6893420DD1A368013BA360002BEBD178
:10158C0023681A49DA688A4208D15B682046984772
:10159C00E2E720469847EEE79047D9E72046904788
:1015AC00DAE7FFF77DFFFFF77BFF039830B1836825
:1015BC00013B836013B90368DB6898476368013BA0
:1015CC0063605BB9236820469B689847A368013B1E
:1015DC00A3601BB923682046DB6898470498A8428F
:1015EC0001D001F0FBF900F0D1FFF7E7A5140008DA
:1015FC00A1140008F0B5044687B0ADF8061003A896
:10160C0004F1140115461E46FFF7C2FEE0694CF2C8
:10161C00503301220DF10701FFF750FB20B103A855
:10162C00FFF798FE07B0F0BD4CF2503301220DF1DC
:10163C000601E069FFF742FB0028F0D104274CF2C9
:10164C00503301220DF10B01E0698DF80B70FFF79F
:10165C0035FB0028E3D1B2B22946E06941F2883368
:10166C00FFF72CFB03A8FFF775FE07B0F0BD03A82E
:10167C00FFF770FE00F08AFF2DE9F04104460D469D
:10168C0084B01A4E0DF10B080DF10A07886902AAF5
:10169C0031460DF10903CDE9007802F07FFA02AA78
:1016AC00204604230521FFF7A5FFCDE900780DF1B5
:1016BC00090302AA3146286802F070FA02AA2046F1
:1016CC0004230121FFF796FFCDE900780DF1090302
:1016DC00314602AA286B02F061FA02AA20460423C2
:1016EC000F21FFF787FF04B0BDE8F0819845000893
:1016FC0030B504469BB0018A0022C068FEF7BCFFDF
:10170C003220FEF74DFE0122218AE068FEF7B4FF7D
:10171C004FF4FA60FEF744FEA16808A8FFF74CFEF0
:10172C000DF1150505A80DF113010DF11203CDE90D
:10173C00003104AACDE902050DF1110324490898E2
:10174C0002F02CFA04AA204606230921FFF752FFC7
:10175C0008980AADA84201D001F040F9A068FFF743
:10176C0097FE08B91BB030BDA16808A8FFF748FE6A
:10177C0008A92046FFF780FF149816AB984201D0B9
:10178C0001F02CF90E9810AB984201D001F026F91B
:10179C000898A842E6D001F021F91BB030BD14988E
:1017AC0016AB984201D001F019F90E9810AB984283
:1017BC0001D001F013F90898A84201D001F00EF9FC
:1017CC0000F0E4FE08980AAB9842F7D1F8E700BFA6
:1017DC0084450008704700BF044A1368142B03F1BA
:1017EC0001031360ACBF022000207047980000205A
:1017FC00002330B5102008254FF400528DB02A4933
:10180C00CDF80E30ADF80630ADF81630274C03F19C
:10181C00804303F58833ADF81400ADF80420029131
:10182C00049107A86A460DEB0501ADF80C5006941F
:10183C00009300F06FF807A800F0DCF8099C05464F
:10184C00A4B16368013B636083B92368184A9B6841
:10185C0093420ED1A368013BA3603BB923681549A1
:10186C00DA688A4208D15B682046984728460DB052
:10187C0030BD20469847EDE720469047F6E7099C97
:10188C007CB16368013B63605BB9236820469B684D
:10189C009847A368013BA3601BB923682046DB680B
:1018AC00984700F073FE00BF000801409C00002028
:1018BC00A1140008A5140008704700BF064B10B512
:1018CC009942044604D00846044901F071F808B165
:1018DC0004F10C0010BD00BFB4460008F44500082C
:1018EC0010B5044601F07AF8204610BD01F076B828
:1018FC0010B50446406908B101F070F8206940B198
:10190C008368013B836023B9BDE810400368DB6842
:10191C00184710BD2DE9F0430546012083B028601F
:10192C008946174600F022FE002380466B602C206F
:10193C0000F01CFE064601232D4AC0E9013346F88F
:10194C000C2B04464946304601AACDF80480FFF71B
:10195C00B7FD019808B101F041F82069C5E90164AF
:10196C00B8B1436843B9A368E6600133A3608368E8
:10197C00013B836093B1246105F10C0397E80300EC
:10198C0083E803003046FFF7B3FE284603B0BDE8FA
:10199C00F083A368E6600133A360ECE70368DB68BF
:1019AC0098476E68E7E7B8F1000F1BD0404601F08E
:1019BC0015F817E0AC68ACB16368013B63608BB998
:1019CC00236820469B689847A368013BA3604BB9EA
:1019DC0023682046DB68984704E0019820B920462C
:1019EC0000F0FCFF00F0D2FD00F0F8FFF7E700BFBD
:1019FC00A0460008F0B504460C27002687B0194B0A
:101A0C0002AD93E80700012385E80700606869468A
:101A1C0041F27072CDE900578DF81460FFF766FD46
:101A2C000098A84210D000F0D9FF0DE06846FFF7EF
:101A3C00D3FE02280CBF40F6B830C820FEF7B0FC2D
:101A4C00218AE068FEF71CFE2368002BEED10020F3
:101A5C0007B0F0BD0098A84201D000F0BFFF00F025
:101A6C0095FD00BFBC4600082DE9F043002489B069
:101A7C00CDE90444CDE90644284B294F9A69294DF8
:101A8C0042F010029A619A69384602F010020192F3
:101A9C00019A9969224641F02001996199694FF0A8
:101AAC00000801F02001029102999E694FF4005147
:101ABC0046F004069E619B694FF0020903F0040393
:101ACC000393039BFEF7D8FD224628461C21FEF704
:101ADC00D3FD4FF400520123384604A9CDE9042369
:101AEC00CDE906891426FEF7D9FC01270022012333
:101AFC0004A92846CDE90623CDE90467FEF7CEFC00
:101B0C000822012304A92846CDE90689CDE904233E
:101B1C00FEF7C4FC09B0BDE8F08300BF0010024022
:101B2C000010014000080140F0B5012100240225FD
:101B3C004FF480324FF4E01301264FF4803791B00C
:101B4C0006A8CDE906670A91CDE90D520F930894CA
:101B5C0000940994CDE90B44CDE90144CDE903444B
:101B6C000F26FEF791FD022700224FF480632946D1
:101B7C0068460494CDE90067CDE90223FEF76CFFBB
:101B8C0011B0F0BD08B5FEF7E7FBFFF7CDFFFFF78F
:101B9C006BFF00F009F800F0F5F8FFF729FE0028BC
:101BAC00FBD108BD704700BF70B54FF482760022A0
:101BBC004FF4007510240A210B4B0C48C3E9065452
:101BCC00C3E900061846D962C3E90222C3E904221C
:101BDC00C3E908229A62FFF791F900B970BDBDE81C
:101BEC007040FFF7DFBF00BF9C00002000300140B9
:101BFC0070B500240268194B86B09A42CDE90244B4
:101C0C00CDE9044401D006B070BDA0210226032505
:101C1C0003F560439A69124842F480529A619A69BA
:101C2C0002F480520092009A9A6942F004029A617E
:101C3C009B69029103F00403019302A9019B039693
:101C4C000595FEF72BFC4022002302A904480494BE
:101C5C00CDE90223FEF722FC06B070BD0030014036
:101C6C00000801400E4B82B09A690E4942F0010205
:101C7C009A619A6902F001020092009ADA6942F0C4
:101C8C008052DA61DB6903F080530193019B4B684E
:101C9C0023F0E06343F000734B6002B0704700BF69
:101CAC000010024000000140704700BFFEE700BF7B
:101CBC00FEE700BFFEE700BFFEE700BF704700BFB6
:101CCC00704700BF704700BFFEF758BB0148FFF7D5
:101CDC006DBA00BFF80000200120704708B501F074
:101CEC00EBFD162303604FF0FF3008BD08B501F083
:101CFC00E3FD16230360FEE70C4A08B5136833B105
:101D0C0069461844884209D81060184608BD08492D
:101D1C000B461160694618448842F5D901F0CCFD98
:101D2C000C224FF0FF330260184608BDF40000206F
:101D3C006801002030B44FF41F054FF000640E4BC7
:101D4C000E4A19680E4841F00101196059680A40A1
:101D5C005A601A6822F0847222F480321A601A686F
:101D6C0022F480221A605A6822F4FE025A609D60A6
:101D7C00846030BC704700BF001002400000FFF8C8
:101D8C0000ED00E04FF0804010B5002341F61F44F9
:101D9C000921174A86B01060104602930093CDE9D2
:101DAC000333059301939360136193615460D16085
:101DBC00FFF7E2F890B94FF4805302A90C48029354
:101DCC00FFF728F988B90022002369460848CDE9B5
:101DDC000023FFF795FA20B906B010BDFFF7E2FE1D
:101DEC00E9E7FFF7DFFE06B010BDFFF7DBFEEAE721
:101DFC00F80000200368B3F1804F00D07047002238
:101E0C0003F5043310B5DC6982B044F00104DC61E5
:101E1C00DB69114603F0010301931C20019BFEF7C3
:101E2C00E3FA1C2002B0BDE81040FEF713BB00BF64
:101E3C00002103E00B4B5B58435004310A480B4B19
:101E4C0042189A42F6D30A4A02E0002342F8043BB5
:101E5C00084B9A42F9D3FFF76DFF01F033FDFFF702
:101E6C0091FE7047584C00080000002078000020BC
:101E7C007800002064010020FEE7012810B503D98A
:101E8C0051F8140C00F062F8BFF35B8FA1F128033A
:101E9C0053E8002F013A43E800200028F8D1BFF3A3
:101EAC005B8F5AB951F81C3C01F158040BB1204618
:101EBC0098472046BDE8104000F012BD10BD000050
:101ECC0038B5002540E91E1240F8805C044600F04D
:101EDC0053F844F8700C00F03DF8472304F8583CD4
:101EEC004E2304F8573C552304F8563C432304F87E
:101EFC00553C04F8543C2B2304F8533C04F8523C56
:101F0C00044B44F86C0C04F8515C44F8503CA4F1BC
:101F1C00800038BD871E000808B504460D461646DD
:101F2C0000F0AAF843683246013343602946204644
:101F3C00FFF7C6FF0123044644F8283B2046FEF772
:101F4C005BF9204600F0BEFE00F00CF808B58047A7
:101F5C0001F0ABFC024B1868BFF35B8F704700BFFE
:101F6C001000002008B5FFF7F5FFFFF7EFFF08B5ED
:101F7C008047FFF7F7FF0000024B1868BFF35B8F39
:101F8C00704700BF0C00002008B5FFF7F5FFFFF706
:101F9C00EEFF7FB500241023CDE90234036815460B
:101FAC009E6900946B468DF804401268B0479DF80A
:101FBC00043003F00603062B09BF01202046009BCA
:101FCC002B6004B070BD0098904214BF0120062015
:101FDC007047000010B50446024B036000F0E5FCAE
:101FEC00204610BD1447000810B50446FFF7F2FF59
:101FFC002046082100F08FFE204610BD2DE9F0414F
:10200C00069E9846DDE908349E420746154607D1E0
:10201C00079900F0CDFC18B165710020BDE8F08186
:10202C004146384600F0C4FC0028F6D00123266057
:10203C002571A371F1E738B515461C4600F0B8FCC4
:10204C0020B10823E36006232560237138BD2DE9F8
:10205C00F04105460C4616461F4600F0A9FC48B94F
:10206C00032F07D82368324629462046BDE8F041A5
:10207C005B691847BDE8F0810048704738010020C3
:10208C0000231A4630B510F8015B05F07F0494402C
:10209C0023432C0602F10702F5D40B6030BD00235C
:1020AC001A4630B510F8014B04F07F0595402B43D0
:1020BC00250602F10702F5D41F2A06D8640642BF92
:1020CC004FF0FF3404FA02F213430B6030BD50287A
:1020DC00F7B505460E4614461F4607D1D01C20F016
:1020EC00030050F8043B3B6003B0F0BD00F00F035D
:1020FC000C2B2ED8DFE803F025071D25292D2D2DBF
:10210C002D182125290001A92046FFF7B9FF019BB5
:10211C00002BE8D005F07002102A08BF26462A06CC
:10212C00334448BF1B68DEE701A92046FFF7B7FF21
:10213C00EDE7204630F8023BEAE7204630F9023B57
:10214C00E6E7204650F8043BE2E7204650F8083B0F
:10215C00DEE701F0AAFB08B50346FF2B08461BD0AF
:10216C0003F07003202B0FD004D8ABB1102B13D07D
:10217C0001F09BFB402B0BD0502B0DD0302BF7D10B
:10218C00BDE8084001F08BBBBDE8084001F08ABBFC
:10219C00BDE8084001F075BB002008BD70B50C46C9
:1021AC000146204615461E46FFF7D5FF33462A4604
:1021BC0001462046BDE87040FFF789BF73B50C4659
:1021CC001546064608B101F05CFB2246286012F861
:1021DC00011BFF291DD02B1D3046FFF7DFFF0246E8
:1021EC00104610F8013BFF2B2B7514D0102301A9BE
:1021FC002B75FFF745FF019B0344EB6010F8013B87
:10220C0001A96B75FFF73CFF019B03442B6102B0E6
:10221C0070BD6860E4E70023EFE71FB503AB0093E4
:10222C0000230A46194600F014FF039805B05DF828
:10223C0004FB000000232DE9F04F91B0059300F052
:10224C000303012B06460C4617460FD01BB1022B7D
:10225C0003D001F02AFB010739D53946204601F09D
:10226C00FBFA90B3092011B0BDE8F08F020706D439
:10227C000D6A38460D21FFF7D0FF854229D0022385
:10228C0006F008061E4300230DF1280ACDF800A025
:10229C000C22194638460A9400F0FCFE062E1AD180
:1022AC00D4E90A59D4F83080B8F1000F0CBF4FF0C4
:1022BC00010B4FF0030B16F0080600F00481BBF184
:1022CC00010F40F0FC80FFF74DFE0820CBE7012307
:1022DC00D6E70623D4E7384601F0D8FA8146002821
:1022EC00BBD0524601463846FFF768FF3946804658
:1022FC009DF83C00FFF72FFF0F210C903846FFF79D
:10230C008CFF20F00100451E0E9B434540F2BF8020
:10231C00424606AB9DF83D100020FFF73FFF07AB90
:10232C0002469DF83D100020FFF738FF08AB02462F
:10233C009DF83D100020FFF731FF09A9FFF7A0FE23
:10234C000A9B069A80461344AB4202D9DDF83880CA
:10235C00DAE7079A1344AB42D6D9DDF82080B8F1FE
:10236C00000F01D00B9B9844099D15B10E98013DAF
:10237C000544B8F1000F3FF470AF002D00F0F3806E
:10238C0016F00803029333D0472323704E23637057
:10239C005523A3704323E370462323714F236371AA
:1023AC005223A3710023E3714FF0000B07A92846B9
:1023BC00FFF775FE08A90390FFF771FE079A002A34
:1023CC0062D039DD9DF83C00FF2831D000F00703C6
:1023DC00042B3FF63EAF01A151F823F04124000835
:1023EC005F2200080F24000841240008392400084B
:1023FC00E379012B0CBF54F8203C04F158030593EE
:10240C00D2E702210D9D09AB01FB12520C99FFF78B
:10241C005EFE099931B15CB305AB0022204600F099
:10242C00D9F828B3079D4FF0030B34E00821E9E7F6
:10243C000021E7E70421E5E76FF0030302FB033318
:10244C000D9AD518DCB10299C9B9059B043D0993C5
:10245C0055F8041F41B109AB00222944204600F075
:10246C00B9F80028F4D0012181F001010029D9D15B
:10247C00089D002D73D0039B2B441D4696E7D15825
:10248C00B1FA81F14909F1E74FF0010BF0E70025B2
:10249C004FF0010BA846F3077FF50DAFBBF1020F10
:1024AC003FF4DBAE0D213846059EFFF7B6FEC4E9BE
:1024BC000A59C4E90806C4F830800620D3E6002D7A
:1024CC0024DAFFF761FDBBF1010F02D1204600F0C9
:1024DC0048FA002D1ADA524649463846FFF76EFE86
:1024EC0039469DF83C00FFF736FE6FF0030305FB01
:1024FC0003320D9B0C90134453F826200AB101367D
:10250C00FAE70422C4E90A60C4E90C23002309AEEB
:10251C001A46194600963846099400F0BBFD002374
:10252C000122194600963846099500F0B3FD0F219B
:10253C003846FFF772FE002300F0010040EA080065
:10254C00099000960F221946384600F0A3FDBBF106
:10255C00020F02D1204600F09BF8072083E6BBF166
:10256C00000F3FF47AAE4FF0020B94E710B5041E47
:10257C0008BF0124204601F0C9F930B900F030FA47
:10258C0008B901F092F98047F4E710BD1EB400F0D1
:10259C009CF81EBCFDF742FE0378472B17D14378FD
:1025AC004E2B14D18378552B11D1C378432B0ED1DC
:1025BC000379432B0BD143792B2B08D183792B2B0C
:1025CC0005D1C07901288CBF002001207047002064
:1025DC00704700002DE9F3411E4603780D46472B4A
:1025EC000246C17913D143784E2B10D18378552BE9
:1025FC000DD1C378432B0AD10379462B07D14379EC
:10260C004F2B04D18379522B01D1002930D01046A5
:10261C00FFF7C2FF002380F00100C0B20024019438
:10262C004BBB50BB01290ABF52F8203CA2F120033E
:10263C00783B01290CBF52F8202C58321C680192AF
:10264C00236820469B689847C8B10227019B1B68EA
:10265C0001932B6801AAD3F8108021460123284648
:10266C00C04770B1019B3360384602B0BDE8F081C1
:10267C0001230846D2E7044CE2E7044CE0E70127CB
:10268C00E7E70746F0E700BF98470008A0470008B7
:10269C0010B50446FFF7F0FC02462046A4F12001D9
:1026AC00FFF77AFF60B154F8043C0133012B44F876
:1026BC00043C03D1936844F8083C9160012010BDA0
:1026CC009368002BF9D0FFF74DFC10B5FFF7D4FC45
:1026DC00826801460AB9FFF745FC02F12004204646
:1026EC00FFF75AFF40B1D369013BD36113B990692D
:1026FC0088609361204610BD8860FBE710B50446E6
:10270C00024B0360FFF766FC204610BD74470008BF
:10271C0010B50446FFF7F2FF20460C2100F0FBFA3F
:10272C00204610BD2DE9F041069E0746964288468C
:10273C0015461C460AD0B8682A46036806961E6AD7
:10274C0041462346B446BDE8F0416047194600F0C7
:10275C002FF90028EFD00620BDE8F0812DE9F14FCC
:10276C000E46DDE90A4ADDE90C8519468346174613
:10277C00994600F01DF990B1002E2C602F7109DBE9
:10278C003444A0450CBF06240124AC71002001B0D8
:10279C00BDE8F08F0236F9D10123AB71F6E7444561
:1027AC0006D15146584600F003F908B16F71EDE7B8
:1027BC00DBF808003A460368CDE90C85CDE90A4AF6
:1027CC00DC6931464B46A44601B0BDE8F04F60478A
:1027DC002DE9F04104460D4616461F46FFF72BFC2B
:1027EC0048B9A0683246036829469C693B46A44612
:1027FC00BDE8F0416047BDE8F08100001A4A70B5B1
:10280C005368A0F10804164623B150F8081C65184B
:10281C00AB4203D940F8043C746070BD06D1D3E9D7
:10282C000035194440E902155460F6E704325E683D
:10283C0026B1B54202D21A1D3346F8E7B54201BFA4
:10284C002E686D6889195D6013681D685E19B44245
:10285C0017BF5B68491940F8043C136816BF40F871
:10286C00081C19605C60D8E74401002000F10803E3
:10287C00082B38BF082330B50D4A073352F8040F24
:10288C0023F0070368B1D0E900148B420AD9021D6A
:10289C002046F7E7C5186C60C150106803601560DE
:1028AC00083030BDC91A0729F4D81460F8E700BF06
:1028BC004401002010B500F18004204601F026F8F8
:1028CC00034630B92046FFF7D1FF034608B9FFF79E
:1028DC0049FB80220021184601F05EF8803010BDC3
:1028EC00064A80389368984205D9D26813449842B6
:1028FC0001D2FFF783BF01F011B800BF44010020E3
:10290C0038B54FF41E65074C2846E56000F0FEFF15
:10291C00A06010B9E060606038BD002360600560A5
:10292C004360F9E7440100200378472B17D1437823
:10293C004E2B14D18378552B11D1C378432B0ED148
:10294C000379432B0BD143792B2B08D183792B2B78
:10295C0005D1C07901288CBF0020012070470020D0
:10296C00704710B5044648B100F0ACF92046FFF7AB
:10297C00DBFF18B154F8140CFFF7E8FAFFF7F2FA82
:10298C0038B50246FFF7D0FF40B1002552F8184C7D
:10299C00104600F097F925B1FFF7F6FA0446012529
:1029AC00F6E72046FFF7E3FA7047704700207047C0
:1029BC00814208B50ED0406803782A2B0CD04968A8
:1029CC000B782A2B08BF0131FDF770FCB0FA80F0B0
:1029DC00400908BD0120FCE70020FAE700F09EBF8B
:1029EC00024B1868BFF35B8F704700BF5401002087
:1029FC000AB100F0A9BF704708B50B68002B02DACA
:102A0C00094800F027F9934208D95200934205D2A5
:102A1C00002AB6BF6FF000430A600B600868BDE87F
:102A2C0008400130FFF7A2BD32480008034653F8B6
:102A3C00080B984201D0FFF7D1BF704708B501F1E0
:102A4C00004140680139091A914202D2184600F03F
:102A5C0001F908BD03688B4206D8406818448142CE
:102A6C0094BF00200120704701207047012A10B547
:102A7C0002D10A78027010BDFFF7BAFFFBE7012AFA
:102A8C0030B403D10B78037030BC7047002AFBD0F4
:102A9C0030BC00F067BF8842F7B504460E461ED026
:102AAC00034653F8082B4D689A420CBF0F228268DC
:102ABC00AA420AD201A90195FFF79EFF07462046BC
:102ACC00FFF7B4FF019B2760A36025B12A4631684C
:102ADC002068FFF7CBFF0022236865605A5503B0CE
:102AEC00F0BD2DE9F3470A9E994643688F18B21A38
:102AFC001A44A3EB07080346019253F8082B0D4622
:102B0C009A4214BF82680F2201A90446FFF774FF92
:102B1C0082461DB12A462168FFF7A8FFB9F1000FC4
:102B2C0006D02EB1324649460AEB0500FFF79EFF50
:102B3C00B8F1000F06D02168A81942463944504418
:102B4C00FFF794FF2046FFF771FF019BC4F800A02C
:102B5C00A36002B0BDE8F0872DE9F74F144680461C
:102B6C000C9D89462A461F462146394BFFF766FFC6
:102B7C00424652F8086BD8F80430964208BF0F2230
:102B8C00A5EB040B18BFD8F8082003EB0B0A524531
:102B9C0051D34E443946A1444046A3EB0909FFF7F3
:102BAC0059FF80B1B9F1000F06D0AC4204D04A46AF
:102BBC0031197019FFF763FF15B32A4639463046B1
:102BCC00FFF754FF1CE035B1AC423CD32A463946E2
:102BDC003046FFF754FFB9F1000F11D0AC420FD0C3
:102BEC004A4631197019FFF74AFFAC4208D23444F7
:102BFC007B199C420FD32A4639463046FFF73FFFDC
:102C0C0000224046D8F80030C8F804A003F80A2087
:102C1C0003B0BDE8F08FBC4203D82A4607EB0B018A
:102C2C00CDE7E41B224639463046FFF728FF2A1B26
:102C3C0071193019C4E700953B4622464946404677
:102C4C00FFF74FFFDCE7B9F1000FD0D0C8E700BFAA
:102C5C001948000808B500F028FE0000004870472D
:102C6C004A48000810B50446024B0360FFF79CFE6F
:102C7C00204610BD8048000810B50446FFF7F2FF4F
:102C8C002046FFF7ABFE204610BD0378472B17D12B
:102C9C0043784E2B14D18378552B11D1C378432B09
:102CAC000ED10379432B0BD143792B2B08D183798C
:102CBC002B2B05D1C07901288CBF00200120704737
:102CCC000020704738B50446FFF7D6F90246056870
:102CDC002046A4F12001FFF7D8FF28B90DB1FFF76A
:102CEC0041F91160284638BD54F80C3C2046002BA5
:102CFC00B4BFC3F10103013344F80C3C53688D425B
:102D0C0003F1FF3353601CBF44F8105C1160656A1B
:102D1C0000F09EF9E6E7FFF761BE03685A004CBF6E
:102D2C0043F0004323F00043184470472DE9F0476B
:102D3C000746164619B301F1FF38C1464FF0000A99
:102D4C000AEB090404EBD4746410E5007919084605
:102D5C00FFF7E3FFA04515D0B04204D9A2450DD032
:102D6C0004F1FF39ECE705F108003844FFF7D5FF13
:102D7C000138B04203D204F1010AE1E70021084610
:102D8C00BDE8F087B042E9D8F9E70000012806D089
:102D9C00022806D00028044818BF002070470348BA
:102DAC0070470348704700BF913300089733000801
:102DBC009D330008214B37B504468D1E4BB101A93C
:102DCC002846AFF3008048B900230920236103B0E3
:102DDC0030BD1B481B4B1B1ADB10019301992A4673
:102DEC00FFF7A4FF01460028EED0FFF796FF4B68D3
:102DFC00A064012B03D1002305202361E7E7002BFE
:102E0C0001F1040010DA0123E064E06C236503682F
:102E1C00002B0EDAC3F30360FFF7B8FF0028206124
:102E2C0014BF00200920D2E7FFF777FF0023E064EE
:102E3C00EBE7FFF772FF20610020C8E700000000FD
:102E4C00144B00084C4C0008036810B5DA07044614
:102E5C0005D49B0700F1480018D5FDF765F92368E8
:102E6C00590703D404F1D000FDF766F923681A075B
:102E7C0003D404F5A870FDF767F92368DB0608D4C2
:102E8C0004F5E870BDE81040FDF7A2B9FDF744F970
:102E9C00E5E710BD036803B103441846704770475B
:102EAC0070B505460C46216C2846FFF783FF064695
:102EBC0008B100F0FAFC236C22466B6129462B69A1
:102ECC00012098470828EED00728F2D13046216C13
:102EDC00FFF7E5FF201DFDF713F92DE9F047ADF5E0
:102EEC00727D03AC0D1DD0F80C90D0F818A00746DD
:102EFC0090460FCD0FC40FCD0FC40FCD0FC495E866
:102F0C000F00002502AE84E80F003560316C3846A6
:102F1C00FFF750FFB8F1000F14BF4FF00A084FF045
:102F2C000908044650BB336C4FF4F0727B61314698
:102F3C007AA800F009FD3B697AAA394640469847C1
:102F4C000546889B73643A46CDE9006A3B46414688
:102F5C000120C847B0B9B4B94FF4F0727AA9304621
:102F6C0000F0F2FC082DA046D0D0072D0AD1204647
:102F7C00316CFFF794FF03A8FDF7C2F848F0100876
:102F8C00B36BDFE7092420460DF5727DBDE8F087B1
:102F9C00F0B5CB6BF9B00B6401AC0D1D06460F46BA
:102FAC000FCD0FC40FCD0FC40FCD0FC495E80F007C
:102FBC0084E80F004FF0FF33009310993046FFF771
:102FCC00F9FE78B933696A463146984708280446B1
:102FDC00F3D06846FFF738FF062C03D1394630464C
:102FEC00FFF75EFF092079B0F0BD10B48261DA6B97
:102FFC00C16010BC1A6419460022FFF76EBF70B591
:10300C004369C66804460D460B6426B10122FFF7DE
:10301C0064FF00F04AFC03690A4601460220984707
:10302C00072805D00828F4D129462046FFF738FF99
:10303C003046296CFFF733FF281DFDF761F8C26895
:10304C000AB9FFF7A5BFCA6B0A640022FFF745BF98
:10305C007047042910D8DFE801F0030D0F0D0D00A7
:10306C0053B90F2A08D800EB82004168009A11600E
:10307C00184670470123FBE70223F9E71FB503ABA2
:10308C00009300230A461946FFF7E3FF039805B0A7
:10309C005DF804FB042910D8DFE801F0030D0F0DD7
:1030AC000D0053B90F2A08D8009900EB820009686B
:1030BC004160184670470123FBE70223F9E71FB56F
:1030CC0003AB0093002303920A461946FFF7E2FF75
:1030DC0005B05DF804FBF0B5D36BADF50F7D136453
:1030EC0017AD141D06460F460FCC0FC50FCC0FC5E0
:1030FC000FCC0FC594E80F0085E80F004FF0FF339D
:10310C00169326996846FFF755FE90B90C2116A820
:10311C006A46FFF7D4FF394616A8B04748B9049B56
:10312C0016AA6946082098470528044602D00928A3
:10313C00E7D1092416A8FFF787FE20460DF50F7D71
:10314C00F0BD00002DE9F04FCE6C174656F8042B5D
:10315C0087B00D4600F003090496009323BB0323AC
:10316C0012020392ADF814302B6DB9F1020F08BFA7
:10317C00AE6B13F0010800F0FD804FF0000803A9BE
:10318C00384600F04AFA00285ED1B8F1000F00F082
:10319C00F5800F213846FFF771FF0E2102463846A5
:1031AC00FFF78DFF764A1DE0130C120403920222E6
:1031BC008DF81530DBB28DF8142006EB8306D3E7BF
:1031CC00002334E0341DB9F1000F0DD063B130464B
:1031DC00FFF7A3FDAC6306462846FFF759FA002813
:1031EC0032D032460F2172E02646D6F800A0BAF152
:1031FC00000FC4D0009BAA6C022B0CBF746874889F
:10320C004FF00F0124F00103384616BFB6F800A0AA
:10321C000836043603EB020BFFF730FF8345CFD89B
:10322C002AF001035B44834294BF00230123600016
:10323C0000F002000AF0010A40EA0A04012C07D04F
:10324C00002CBFD0022C49D0092007B0BDE8F08F6C
:10325C00B9F1000F27D1002B3ED073683268991C4E
:10326C004FEAD272F0D005F158010133029109D026
:10327C00301DFFF70FFE02AB01462846FFF7AAF9F7
:10328C00044648B30D213846FFF7F8FE022C28629D
:10329C00029A04D12B4643F82C2F6B6200E06A6231
:1032AC00AE620620D1E70D2138462C6AFFF7E6FE08
:1032BC00844211D1AB6A9E420ED13046FFF72DFDF0
:1032CC000F2102463846FFF7FAFE2A4600213846FF
:1032DC00FFF7F5FE0720B8E7083686E7346824F0D8
:1032EC000044B9F1000F28D1FBB1019B3BB1E4B90B
:1032FC000D213846FFF7C2FE029B2862CDE7DDF8B0
:10330C0004A005F1580BA245F2D00AF1010A06EB14
:10331C008A00CDF808B0FFF7BDFD02AB01460022D4
:10332C002846FFF757F90028EDD033680134002BFD
:10333C00B8BF043606EB840657E70D213846D5F89E
:10334C0020A0FFF79BFE8245EFD1AB6A9E42ECD1E9
:10335C004FF000080423C5E90B83F318AC626B63D0
:10336C003368434503DA601C06EB8000A6E74FF098
:10337C000108DAE700F00803019336E7082064E758
:10338C008D2900080023FFF7DDBE0123FFF7DABE0D
:10339C000223FFF7D7BE2DE9F0410546C2B0144613
:1033AC009846042900F2BC80DFE811F005002000EB
:1033BC00BA00B200DF00B8F1000F40F0B18091B25A
:1033CC00836B424601202E1D00FA02F70F421CBFF0
:1033DC0053F8047B46F822700132102AF4D1A10470
:1033EC0000D4AB63404642B0BDE8F08108F0FB036B
:1033FC00012B4FEA124694B240F09280B8F1010FC3
:10340C0006EB040740F0D780102F00F289800F2EB6
:10341C0000F28680002705E0102FFBD9B8F1050FCC
:10342C007ED1103F2B68DA070CD5284623F0010219
:10343C00B8F1050F40F8482B18D142F002022A606F
:10344C00FCF776FE4FB12B68580706D5284623F0BB
:10345C00040340F8D03BFCF773FEB8F1010F0BD11D
:10346C0020A8FCF75DFE8FB9002711E023F00303C1
:10347C002B60FCF755FEE5E70F2E02D820A8FCF7D1
:10348C0057FE002FF0D06846FCF75AFEC6F1100428
:10349C00AB6B002C19460BDD20AA02EBC602E10037
:1034AC005018A3EB020C824202EB0C041CD1194401
:1034BC0067B1102E334638BF102342AA02EBC30368
:1034CC00A3F5C67301EBC702914211D1B8F1010FFC
:1034DC0008BF0431B8F1010FA9630ED120A8FCF785
:1034EC001BFE4FF000087DE7246842F8044BDAE736
:1034FC0051F8040B43F8040FE6E70F2E02D820A86E
:10350C00FCF712FE002FECD06846FCF715FEE8E73E
:10351C00B8F1030F04D1160C94B23319102B02D945
:10352C004FF002085EE70368190706D523F008037D
:10353C00036000F5A870FCF729FE20A8FCF726FE16
:10354C00AA6B20AB03EBC603E4001919D61A8B4205
:10355C0003EB060005D11444AC6320A8FCF7F4FD82
:10356C00BFE7006843F8040BF1E7B8F1000FD7D1BF
:10357C00102AD5D80368DA0606D523F010030360A9
:10358C0000F5E870FCF72EFE20AE3046FCF72AFE64
:10359C0000220121AB6B01FA02F020421CBF53F850
:1035AC00040B46F822000132042AF4D1AB633046F6
:1035BC00FCF70EFE16E7202FB2D80F2E7FF62CAF9D
:1035CC002746002C3FF450AFB8F1050FA8D13AE7CD
:1035DC00027A03467AB9427A7AB1013A4272426867
:1035EC00111D12684160026003221A721A68100ED3
:1035FC0012021A607047013AF7E7B02070471FB506
:10360C0003AB009300230C221946FFF722FD03980D
:10361C0005B05DF804FBFFF7F2BF2DE9F04305465A
:10362C008846002685B04046FFF7D2FFB0280446F6
:10363C0011D176B903AC33460E223146009428469C
:10364C00FFF707FD009433460F2231462846FFF75B
:10365C0021FD00202CE002061DD4002303AF4FEA0D
:10366C008009194600970D222846FFF7F2FC5FFAF5
:10367C0089F9039B09F1040914F0400F14BFA3EB63
:10368C0009034B440393002300970D221946284647
:10369C00FFF700FDC7E700F0F003802B19D10402FF
:1036AC004046FFF795FF0443B4F5004F03D10920C2
:1036BC0005B0BDE8F08300232401A2B219462846C8
:1036CC00FFF769FE0028F2D114F4004F18BF012651
:1036DC00A9E7902B0DD100F00D030D2BE7D00023A3
:1036EC0003AF00F00F02009719462846FFF7B1FC14
:1036FC00C9E7A02B14D1C24302F007034FF47F6239
:10370C001A4103074FF0000302F47F6248BF42F4F2
:10371C00804219462846FFF73EFE002883D0C6E7B4
:10372C00B02B45D1B12809D14046FFF751FF0246D5
:10373C000028BCD010F0F003EBD0B8E7B2281ED1B3
:10374C00002303AC0D22194600942846FFF781FC98
:10375C004046FFF73DFF022700F07F020399BA4075
:10376C0010F080030A4404D102F501720392009414
:10377C008BE7404603920737FFF72AFFECE7B328A5
:10378C000BD14046FFF724FF0123020300F00F008A
:10379C0002F4702201300243BBE700F0FC03B42BAF
:1037AC0085D000F007020132012342F40022B0E779
:1037BC00C02B45D1C6280AD14046FFF709FF0203AA
:1037CC0000F00F0002F4702201300323E3E7C72856
:1037DC000CD14046FFF7FCFE024600283FF467AFD1
:1037EC0010F0F0037FF463AF042193E700F0F803CB
:1037FC00C02B06D100F00F020132032342F4202229
:10380C0087E7C8280DD14046FFF7E2FE052300F0FC
:10381C00F00200F00F001032013040EA02320121B8
:10382C0078E7C9287FF443AF4046FFF7D1FE020387
:10383C0000F00F0002F47022013005230243EEE782
:10384C0000F0F803D02B7FF432AF00F00702013206
:10385C00052342F40022E2E71FB5C36C0C465A68FC
:10386C0001A91202019203F10802029203228DF8BF
:10387C000C20DB7920468DF80D30FFF7CEFE04B01E
:10388C0010BD08B5FFF7C7FE806C08BD08B5FFF783
:10389C00C2FEC06CC379023300EB830008BD08B5CF
:1038AC0000F003F808B5FFF7FAFF08B5062000F0A2
:1038BC0059F90120FEF71AFA014B1868704700BF3E
:1038CC001400002070B500260C4D0D4C641BA41088
:1038DC00A64209D100F006FE00260A4D0A4C641BD4
:1038EC00A410A64205D170BD55F8043B984701368B
:1038FC00EEE755F8043B98470136F2E74C4C0008CC
:10390C004C4C00084C4C0008544C0008024B01462F
:10391C00186800F095B800BF14000020024B014657
:10392C00186800F041B800BF1400002010B5C9B2EF
:10393C0002449042034601D1002303E01C7801307D
:10394C008C42F6D1184610BD0A44914200F1FF3367
:10395C0000D1704710B511F8014B914203F8014F9B
:10396C00F9D110BD884210B501EB020302D9834294
:10397C001C4607D8421E994208D011F8014B02F898
:10398C00014FF8E783189A1A9A4200D110BD14F827
:10399C00011D03F8011DF7E703460244934200D1D1
:1039AC00704703F8011BF9E738B50546002943D0E9
:1039BC0051F8043C0C1F002BB8BFE41800F01AF9A6
:1039CC001E4A1368104633B9636014602846BDE87C
:1039DC00384000F010B9A3420BD921686218934209
:1039EC0001BF1A685B685218226063600460EDE7DF
:1039FC0013465A680AB1A242FAD919685818A0425B
:103A0C000BD120680144581882421960DED110682D
:103A1C005268014419605A60D8E702D90C232B6014
:103A2C00D4E7206821188A4201BF1168526809182E
:103A3C00216062605C60C9E738BD00BF580100209E
:103A4C00F8B5CD1C25F0030508350C2D38BF0C2519
:103A5C00002D064601DBA94203D90C23336000205C
:103A6C00F8BD00F0C7F821490A6814469CB9204FEC
:103A7C003B6823B92146304600F03CF838602946B3
:103A8C00304600F037F8431C23D10C23304633600A
:103A9C0000F0B1F8E3E723685B1B17D40B2B03D9B9
:103AAC0023601C44256004E06368A2420CBF0B60D9
:103ABC005360304600F09FF804F10B00231D20F0FA
:103ACC000700C21ACCD01B1AA350C9E7224664685F
:103ADC00CCE7C41C24F00304A042E3D0211A3046E6
:103AEC0000F008F80130DDD1CFE700BF580100200D
:103AFC005C01002038B50023054C054608462360C0
:103B0C00FEF7FAF8431C02D1236803B12B6038BDD1
:103B1C00600100201F2938B504460D4604D9162330
:103B2C0003604FF0FF3038BD426C12B152F82130B7
:103B3C004BB9204600F030F82A4601462046BDE835
:103B4C00384000F017B8012B0AD0591C03D11623AA
:103B5C0003600120E7E70024284642F825409847F7
:103B6C000020E0E7024B01461868FFF7D3BF00BF07
:103B7C001400002038B50023064C054608461146B3
:103B8C002360FEF7ABF8431C02D1236803B12B6012
:103B9C0038BD00BF60010020FEF79EB80EB44FF494
:103BAC00017230B59CB01FAC54F8045BADF8142016
:103BBC0002900690FCF784FB0B4B03900B930023B5
:103BCC000F9314934FF6FF7307900848ADF8163017
:103BDC002A46234602A90068019400F067F81CB03D
:103BEC00BDE8304003B07047FD3B000814000020D6
:103BFC00002070477047704738B54B1C144603D1F2
:103C0C004FF0FF35284638BD9389CDB223F0200301
:103C1C009381636B52688BB1A36B934208DD23686D
:103C2C005A1E226003F8015C636801336360E9E7A4
:103C3C00214600F0F1FB0028F1D0E1E7216923686F
:103C4C0051B1994208D213F8011CA94204D1013B8D
:103C5C00013223606260D5E7C4E90F3204F14403FA
:103C6C0063630323A363234603F8465F23600123A6
:103C7C00DCE710B50C46496B69B104F14403994279
:103C8C0001D0FFF791FE0020236C6063636013B1D9
:103C9C00E36B236010BD23694FF0FF3023600023DA
:103CAC006360A38943F02003A381F3E72DE9F04F70
:103CBC000C4600210646ADF5237DCDE944119A4909
:103CCC000DF10408A0919949994FDFF86892CDF84D
:103CDC001881A191009392F800A0BAF1000F00F0A6
:103CEC0021811AF80730551C13F0080319D06368AA
:103CFC00002B0FDD23681A78BA5C120701D42A4610
:103D0C00E9E7459A01330132459262682360013A32
:103D1C006260ECE7A19B2146304698470028E9D029
:103D2C00EDE7BAF1250F7FD14193439353782A2BBA
:103D3C0004BF1023951C4FF00A0208BF4193AB46F9
:103D4C001BF8011BA1F13003092B21D9032279485F
:103D5C00FFF7ECFD38B1A0EB090301205D4698405C
:103D6C00419B1843419015F8013B672B48D8652BB4
:103D7C0080F09E80472B12D8452B80F09980002B29
:103D8C006BD0252B50D0032347930A23429316E084
:103D9C00439B5D4602FB0313303B4393CFE75B2B06
:103DAC0067D027D8582BEED1419A42F40072419239
:103DBC0010226F2B34BF0323042342924793636872
:103DCC00002B77DD419B590604D423681A78BA5C22
:103DDC00120776D4479B022B00F386806B46224653
:103DEC0041A9304600F0AAF8012800F09B80022877
:103DFC0085D12FE0632B47D0642BC4D10A22D8E79E
:103E0C00702B2DD008D86E2B44D02ED8692BBAD15C
:103E1C00002342930323D1E7752BEFD0782BC3D02B
:103E2C00732BB0D10223C9E76368002B0CDD236828
:103E3C001A78524576D1013362682360459B013A6A
:103E4C000133626045935AE7A19B2146304698475F
:103E5C000028ECD0449800285AD14FF0FF305DE098
:103E6C00419A42F0200241929EE708234293042398
:103E7C00A4E72946404600F0ABF9419B054643F0C8
:103E8C0040034193012399E7419B43F04003419345
:103E9C00002393E74198C3063FF531AF009B459A49
:103EAC00191D00911B68C0074CBF1A801A6026E7C9
:103EBC00052383E7A19B214630469847002881D0F3
:103ECC00C8E7459A013245926268013A002A62605D
:103EDC0002DD0133236078E7A19B214630469847E9
:103EEC0000283FF472AFB5E7042B06DC6B46224684
:103EFC0041A9304600F07AF876E70F4B002B3FF4DF
:103F0C00FEAE6B46224641A93046AFF300806BE70C
:103F1C00A38913F0400F18BF4FF0FF300DF5237D30
:103F2C00BDE8F08F4498F9E7053C00087F3C000899
:103F3C00AC4800088C480008000000002DE9F8434C
:103F4C0015468A6880460C4632B98A69002A0CBF2D
:103F5C0001224FF0FF328A6000272268DFF8889038
:103F6C00D1065FBF1A68111D19601668A06988B167
:103F7C00012807D12B681A7863699B5C53B927BB5E
:103F8C00BDE8F883022820D12B681B7813F8093080
:103F9C001B071AD423680137DA065EBF2B681B781F
:103FAC0006F8013B2A686B6801322A60A268013B63
:103FBC00013A6B60A26042B1002BD7DCD4F880319F
:103FCC002946404698470028D0D0236813F01003A8
:103FDC0005D1E2680132E260A26902B13370236953
:103FEC0000201F442761CBE7AC4800082DE9F04FB7
:103FFC000C469946724B87B08246164693E80700EA
:10400C0003AB83E807006F4BA1696F4A274603296E
:10401C0018BF1A46A36801925A1EB2F5AE7F81BF33
:10402C006FF4AE7503EB050840F25D13A36057F80F
:10403C001C3B98BF4FF000083D464FF0000B43F47B
:10404C0050632360316803AB0222097853F82B00CC
:10405C00FFF76CFC28B3BBF1010F59D162682AB988
:10406C0008232268636042F400722260226822F402
:10407C00A0622260A268511EA16092B13268511CEC
:10408C003160127805F8012B7268013A002A7260CF
:10409C0007DCD4F88021314650469047002840F088
:1040AC0085800BF1010BBBF1030FCBD163680BB90E
:1040BC000A236360636845496069C91A00F088F88F
:1040CC004FF0000BA3682268002B3DD0316860696B
:1040DC0091F800C010F80C00002835D0BCF1300F5E
:1040EC0024D1100522D50BF1010BB8F1000F03D030
:1040FC00013308F1FF38A3607368013B002B736038
:10410C001BDD336801333360A368013BA360D9E73F
:10411C00BBF1020FAED1226802F4C061B1F5007F91
:10412C00BFD1102342F480726360A2E722F41062C4
:10413C0022600B7805F8013BDEE7D4F8803131467C
:10414C00504698470028DFD02368D9050DD5BD42CD
:10415C0009D915F8011C05F1FF38D4F87C31324629
:10416C00504698474546BD4228D0226812F01002AE
:10417C0013D12A70636839465046019EB047D9F86E
:10418C00003021681A1DC9F8002011F0200F1B689F
:10419C000FD01860E3680133E3600020ED1BAB44E3
:1041AC0025695D44256107B0BDE8F08F4FF0000B29
:1041BC00CAE7CA074CBF18801860EBE70120F2E78A
:1041CC00184500082144000831430008A0480008A5
:1041DC0070B50B78441E5E2B13BF4A1C8A1C4B789F
:1041EC00002108BF012100F1FF0504F8011FAC42BA
:1041FC00FBD113B9013A104670BD81F00104C454CF
:10420C00511C11F8015C4E1E2D2D0A4606D05D2D59
:10421C00F1D00DB93246EEE72B46F0E70E785D2E65
:10422C00FAD0B342F8DC01339E42C454FBDC0231B9
:10423C00E7E700002DE9F04786460846384F05466B
:10424C0015F8014BE65D16F0080634D12D2C34D14F
:10425C004FF001082C78851C002B5CD0102B09D159
:10426C00302C07D1287800F0DF0058284ED11023CD
:10427C006C780235B8F1000F14BF4FF0004C6FF0A2
:10428C00004C0027BCFBF3F9384603FB19CAA4F118
:10429C003006092E18D83446A34224DD7E1C07D0E4
:1042AC0081451DD301D1A2451ADB012700FB034038
:1042BC0015F8014BEBE72846C1E72B2C08BF2C78EF
:1042CC00B04608BF851CC7E7A4F14106192E01D8DA
:1042DC00373CE1E7A4F16106192E04D8573CDBE723
:1042EC004FF0FF37E4E77B1C06D122236046CEF863
:1042FC00003042B9BDE8F087B8F1000F00D0404261
:10430C00002AF7D007B1691E1160F3E73024002BA7
:10431C00B0D10823AEE7302CA4D00A23AAE700BF03
:10432C00AC480008FFF786BF2DE9F04386460846E7
:10433C00374F054615F8014BE65D16F0080631D1EE
:10434C002D2C31D14FF001082C78851C002B5AD024
:10435C00102B09D1302C07D1287800F0DF00582819
:10436C004CD110236C7802354FF0FF3CBCFBF3FCB6
:10437C00002603FB0CF930466FEA0909A4F130075B
:10438C00092F18D83C46A34224DD002E1FDB8445A0
:10439C001DD301D1A1451ADB012600FB034015F802
:1043AC00014BEBE72846C4E72B2C08BF2C78B04612
:1043BC0008BF851CCAE7A4F14107192F01D8373C67
:1043CC00E1E7A4F16107192F04D8573CDBE74FF064
:1043DC00FF36E4E7002E07DA22234FF0FF30CEF849
:1043EC00003042B9BDE8F083B8F1000F00D0404274
:1043FC00002AF7D006B1691E1160F3E73024002BB8
:10440C00B2D10823B0E7302CA6D00A23ACE700BF0A
:10441C00AC480008FFF788BF2DE9F0410C46496B0A
:10442C0004F1440399421BD14FF48061FFF708FB60
:10443C0018B94FF0FF30BDE8F0814FF48063A363EF
:10444C0094F84630606380F8FF3394F8453000F2FE
:10445C00FD30437094F84430037020600020EAE78C
:10446C00A66B77003A4600F00FF805460028E0D01E
:10447C0000EB0608014632464046FFF765FAC4F8E1
:10448C000080C4E90D57E9E7F8B5074614460E4617
:10449C0021B91146BDE8F840FFF7D2BA22B9FFF7AF
:1044AC0083FA25462846F8BD00F014F8A0420FD236
:1044BC0021463846FFF7C4FA05460028F2D03146AB
:1044CC002246FFF741FA31463846FFF76DFAE9E725
:1044DC003546E7E751F8043C181F002BBCBF0B58BE
:1044EC00C0187047F8B500BFF8BC08BC9E467047B2
:0C44FC00F8B500BFF8BC08BC9E46704735
:1045080002030405060708090A0B0C0D0E0F10100C
:10451800A2480008A5480008A84800081447000851
:104528002C450008394750494F47756172640000AF
:104538000000000024450008611300087D130008EE
:104548003139322E33302E312E3100003139322EAE
:1045580033302E312E3732003235352E3235352E66
:104568003235352E3000000035302D39412D32439B
:104578002D33342D33382D434600000025782D2562
:10458800782D25782D25782D25782D257800000083
:1045980025642E25642E25642E256400537431313C
:1045A8005F4D757465785F62617365494C4E395F1C
:1045B8005F676E755F63787831325F4C6F636B5FEE
:1045C800706F6C69637945304545000014470008F1
:1045D800A4450008537431395F53705F6D616B6592
:1045E8005F7368617265645F7461670014470008EF
:1045F800DC450008537431365F53705F636F756E26
:104608007465645F62617365494C4E395F5F676EBC
:10461800755F63787831325F4C6F636B5F706F6C76
:10462800696379453045450074470008FC45000832
:10463800D4450008537432335F53705F636F756EEF
:104648007465645F7074725F696E706C61636549EC
:10465800313257353530304D616E6167657253615F
:104668004953305F454C4E395F5F676E755F6378BD
:104678007831325F4C6F636B5F706F6C696379453B
:1046880030454500744700083C460008304600089D
:10469800000000008C460008C5180008ED18000846
:1046A800FD180008F9180008C918000800000000E3
:1046B800000000003139322E33302E312E3234349E
:1046C80000000000000000000000000001020304D8
:1046D8000607080974470008E84600080448000867
:1046E8004E31305F5F637878616269763131375F68
:1046F8005F636C6173735F747970655F696E666F11
:104708004500000000000000DC460008E11F00082A
:10471800F51F0008B9290008B92900085B2000081E
:104728009F1F00084320000809200008D31F000825
:104738007447000844470008DC4600084E31305FE3
:104748005F637878616269763132305F5F73695F81
:10475800636C6173735F747970655F696E666F45CA
:104768000000000000000000384700080927000882
:104778001D270008B9290008B92900085B2000088E
:104788009F1F0008DD270008692700083127000857
:1047980014470008B047000814470008D04700082D
:1047A80014470008F44700084E31305F5F6378789B
:1047B800616269763131355F5F666F726365645F28
:1047C800756E77696E6445004E31305F5F63787847
:1047D800616269763131395F5F666F726569676EEC
:1047E8005F657863657074696F6E450053743965E9
:1047F8007863657074696F6E0000000014470008E4
:104808000C480008537439747970655F696E666F77
:104818000062617369635F737472696E673A3A5FC5
:104828004D5F7265706C6163650062617369635F97
:10483800737472696E673A3A5F4D5F63726561744B
:1048480065006261645F7765616B5F707472000018
:104858007447000864480008A847000853743132B8
:104868006261645F7765616B5F707472000000005D
:104878000000000058480008712C0008852C00082A
:10488800692C0008686C4C00412D46612D6638394A
:1048980030313233343536375D002B2D003030005F
:1048A8007858000020202020202020202028282898
:1048B80028282020202020202020202020202020E0
:1048C8002020202088101010101010101010101028
:1048D8001010101004040404040404040404101048
:1048E80010101010104141414141410101010101E5
:1048F8000101010101010101010101010101011091
:1049080010101010104242424242420202020202B9
:104918000202020202020202020202020202021061
:10492800101010200000000000000000000000002F
:10493800000000000000000000000000000000006F
:10494800000000000000000000000000000000005F
:10495800000000000000000000000000000000004F
:10496800000000000000000000000000000000003F
:10497800000000000000000000000000000000002F
:10498800000000000000000000000000000000001F
:10499800000000000000000000000000000000000F
:1049A80000000000000000000000000000000000FF
:1049B80000000000000000000000000000000000EF
:1049C80000000000000000000000000000000000DF
:1049D80000000000000000000000000000000000CF
:1049E80000000000000000000000000000000000BF
:1049F80000000000000000000000000000000000AF
:044A080000000000AA
:104A0C0035D8FF7FB0B0A800FFFF010029D8FF7F89
:104A1C00B0B0A800FFFF01001DD8FF7FB0AB0200B3
:104A2C00FFFF0108322860007E04000008B10181FC
:104A3C00B0B0008400000000FDD7FF7FB0AC0B00CD
:104A4C00FFFF01151A04FE01004604BE0100B60169
:104A5C0008FE0100FA01040000000000D9D7FF7F16
:104A6C00B0AB0600FFFF010D14040000244C7A00CB
:104A7C008001040000000000BDD7FF7FB0A91A0020
:104A8C00FFFF01180C2400005C04D401006E12001E
:104A9C0000840104AE0100D00104000099D7FF7F0F
:104AAC00B0A90C00FFFF010E4204000048048E0167
:104ABC0000B20104000000007DD7FF7FB0AD020002
:104ACC00FFFF0118100400001C049201003A04C6F8
:104ADC0001007204A00100D00104000059D7FF7F2F
:104AEC00B0AB0600FFFF0108280460003A34000058
:104AFC0008B10181B0B000840000000008B1018150
:084B0C00B0B0008400000000BD
:104B14004CC8FF7FF4FEFF7F60C8FF7FF8FEFF7F75
:104B240078C8FF7FA908B18098C8FF7FB0AB028026
:104B3400D8C8FF7FECFEFF7F60C9FF7F0100000043
:104B440068C9FF7FF0FEFF7F80C9FF7F010000007E
:104B5400A4C9FF7FECFEFF7FA4CAFF7F08FFFF7F8D
:104B640020CBFF7FB0AC038090CBFF7F14FFFF7F8F
:104B74006CCCFF7F0100000080CCFF7F28FFFF7F0B
:104B840040CDFF7F0100000094CDFF7F34FFFF7F05
:104B94006CCEFF7F50FFFF7FD8CEFF7F0100000067
:104BA4001CE2FF7FB0A90280A8E2FF7FB0B0A8801A
:104BB400ECE2FF7F01000000F0E2FF7FB0B0AA80CA
:104BC40022E3FF7FAE71B280D0E3FF7FAB3F38803A
:104BD40022E4FF7F010000002EE4FF7FB0B0AA8032
:104BE40066E4FF7F01000000F6E4FF7FAB0EB280B5
:104BF4005CE5FF7FB0AF068094E7FF7F0100000013
:104C04009EE7FF7FAC3F0180D0E9FF7F01000000F9
:104C1400F6E9FF7F0084048006EAFF7F01000000BC
:104C240002EAFF7FB0AD048038ECFF7FB0A80380B8
:104C34005AECFF7FC4FEFF7F5CECFF7FC8FEFF7F62
:084C440066ECFF7F0100000097
:084C4C00010300080D29000816
:044C5400DD02000875
:104C5800010000001000000000A24A04711F0008B3
:104C6800B73800081800002000000000CC490008F0
:104C7800EC490008AC4900080000000000000000F2
:104C8800000000000000000000000000000000001C
:104C9800000000000000000000000000000000000C
:104CA80000000000000000000000000000000000FC
:104CB80000000000000000000000000000000000EC
:084CC8000000000000000000E4
:0400000508001E3D94
:00000001FF
